:100000000C94BE0A0C94F60A0C94F60A0C94F60AA8
:100010000C94F60A0C94F60A0C94F60A0C94F60A60
:100020000C94F60A0C94F60A0C9414200C94D01F2D
:100030000C94EC2B0C94F60A0C94F60A0C94F60A29
:100040000C94F60A0C94F60A0C94F60A0C94F60A30
:100050000C94F60A0C94EC200C94F60A0C94F60A14
:100060000C94F60A0C94F60A0C94F60A0C94F60A10
:100070000C94F60A0C94F60A0C94F60A0C94F60A00
:100080000C94F60A0C94F60A0C94F60A0C94F60AF0
:100090000C94BD300C94F60A0C94F60A0C94F60AF3
:1000A0000C94F60A0C94F60A0C94F60A167C1400CA
:1000B0001A000800150017002B00040016000700A6
:1000C00009000A004C001D001B0006001900050075
:1000D0000000000026022702E3002C42000000007E
:1000E0004A444D43E000E2001C0018000C001200DE
:1000F00013002D000B000D000E440F0033223400BE
:100100001100104536463700380031000000284302
:100110001E022D0200000000D538D4322A00000053
:1001200000000000010001000100010001000100C9
:1001300001000100010001000100010001000100B7
:100140000100010001000100000000002F0030004C
:10015000010201000000000001000100E402E602CB
:10016000010001000100010001000100D300D102E3
:10017000D2000100010001000100010001000100A6
:100180000100010000002800010001000000000043
:10019000010001000100000000000000390014020D
:1001A0001A020802150217022B02040216020702A5
:1001B00009020A02E3021D021B02060219020502DD
:1001C000000000002F0230020102010000000000C8
:1001D00001000100010201021C0218020C021202BD
:1001E00013022D020B020D020E020F023302340223
:1001F00011021002360237023802310200000102F9
:100200001E022E0200000000010201000102000097
:10021000000000001F0220022102220224022F00FF
:100220003A003B003C003D003E0045003F004000DE
:100230004100420043004400000000004500460029
:1002400001000100000000000100010001000100A8
:1002500030005F0060006100220223022E005C007B
:100260005D005E0057002502350259005A005B0010
:10027000560054000000010062006300000000000E
:100280000100010001000000000000003D04B40076
:1002900049005200150117041A01160150005100BF
:1002A0004F0009041D137A007B007C007D001713AA
:1002B0000000000017011A01010001000000000009
:1002C00001000100010001001C21017EA600007E4A
:1002D000AC000000D3000D000100D200AE00AD0064
:1002E000B30001000100A800AB0000000000010005
:1002F000A600007C000000000100E500E70000000F
:1003000000000000010001000100010001000100E7
:1003100001000100010001000100010001000100D5
:1003200001000100010001000000000001000100C7
:1003300001000100000000000100010001000100B7
:1003400001000100010001000100010001000100A5
:100350000100010001000100010001000100010095
:100360000100010000000100010001000000000088
:100370000100010001000000000000000100010078
:100380000100010001000100010001000100010065
:100390000100010001000100010001000100010055
:1003A0000000000001000100010001000000000049
:1003B0000100010001000100010001000100010035
:1003C0000100010001000100010001000100010025
:1003D0000100010001000100010001000000010016
:1003E0000100010000000000010001000100000008
:1003F0000000000001048E966E773EFE7E5F1DB801
:10040000F2664EFF5D19B0C20469542AD62EBFDDD4
:1004100019B0C3E529B1E023A5A9B1C10082674C99
:100420001A978D795120C7068E7C7C7A764FFD59BC
:1004300030E2460E9EBEDF1D9991A0A5A1A9D02253
:10044000C6EF5C1B958990A2A7CCFB5528B3E44A64
:10045000F76C3BF46A562EDE1F9DB8D3058892A632
:10046000CE1EBEDF1D99B0E246EF5C07115D980B12
:100470009D9497EE4E45336B44C729562730C6A747
:10048000D5F256DFB43862CBA0B6E30F840624055C
:10049000656F7689B577412782666582CCD5E6207F
:1004A000D52717C5F803237C5F64A51DC1D636CBBD
:1004B0004CD4DB66D78BB1997E6F4C364006D6EBB9
:1004C000D7A2E4F495515A5496D55344D78CE0B949
:1004D0004068D218E9DD9A239248EE7F43AFEA776D
:1004E00038848C0A72AF69F8DDF12483A3F84ABF1F
:1004F000F59413DBBBD8B4B3A0FB45506030591260
:100500003171A2D313E7FAE7CE0F63150B6B94BBDF
:10051000378326059DFB4692FC0A15D10D7392D6B2
:100520008C1B8CB8558ACEBDFE8EFCED09128391D2
:1005300082513123FBB40C76AD7CD9B44BB2671435
:10054000099C7F0C18BA3BD68E142AE41B529F2BB1
:100550007DE1FB6A3302FAAC5AF23E887EAED1F3FB
:1005600078E805D1E3DC21F6E19ABD170ED9469B68
:100570008803EAF666BE0E1B5049964097F1F1E4F7
:1005800080A66EE87734BF294044C2FF4E98D39CC2
:10059000A3322B76510409E7A9D1A632B12353E245
:1005A00047ABD6F5695C3E5FFAAE4520E5D244FF25
:1005B00039326DFD27575CFDF0DEC1B599E5F51CBC
:1005C000770175C56D5892F2B247000126967A30D0
:1005D000FFB7F0EF77C18A5DDCC0D129301E7738D4
:1005E0007A94F1B87A7EEFA4D1AC314AF25D643DE1
:1005F000B2E2F00899FC70EE24A77EEE1E20697D21
:1006000044BF8742DF883B0CDA42C904F94550FCFD
:10061000838F116A72BC9995F0AC3DA73BCD1CE26B
:10062000887937115F3989950A16847AF68AA42861
:10063000E4ED83803BB123A50310F466EABB0C0F05
:10064000C5EC6C69C5D324ABD42AB799887608A0C9
:10065000A8957CD8386DCD5902514BF1B52B50E39C
:10066000B6BDD072CF9EFD6EBB44C8248A77188A6F
:100670001306EF977DFA81F031E6FA77ED31063116
:100680005B548A9F3068DBE240F84E73FAAB748BA0
:10069000105813DCD2E678D1322E8A9F2C580648A7
:1006A00027C5A95E8147894621910370A43E889C95
:1006B000DA330ACEBC8B8ECF9FD3718043CF6BA928
:1006C0005183763082C56A853911501A82DC1E1C2E
:1006D000D57DA9719933471997B35AB1DFEDA4F2CB
:1006E000E62684A2289A9EDFA66AF4D6FC2E5B9D9D
:1006F0001A2A2768FBC183214B90E036DD5B31422B
:1007000055A013F7D089537199570929C5F321F8DA
:10071000372F40F3D4AF16083602FC77C58B049010
:1007200056B9C9679A99E800D386FF972D08E9B7AB
:10073000B391BCDF45C6ED0F8C4C1EE65B6E3830C6
:10074000E4AAE395DEB9E49AF5B2559A879BF66A76
:10075000B2F2779A31F47A31D11D04C07C32A29E74
:100760009AF562F8278DBF51FFD3DF64373F2A6FB8
:10077000763A7D77069E777F5EEB3251F916669A60
:1007800009F3B008A470964630FFDA4FE91BED8DEF
:10079000F8741F3192B3731736DB9130D688556BDE
:1007A0003477877AE7EE06C61C8C190C4846235E20
:1007B0009C075CBFB47ED64F749CE2C5508BC58B42
:1007C000159060625729D01343A18088910044C7D7
:1007D0004D1986CC2F2A755AFCEB972A70E378D8EE
:1007E00091B04F9907A395EA2421D5DE5120932794
:1007F0000A3073A8FF8A97E9A76A8E0DE8F0DFEC4C
:10080000EAB46C1D392A622D3D5A8B65F890052E8D
:100810007E912C78EF8E7AC12FAC78EEAF2845060A
:100820004C26AF3BA2DBA39306B53CA5D8EE8FAF19
:1008300025CC3F856848A962CC978F7F2AEAE015CE
:100840000AAD6207BD45F841D836CB4CDB6EE63ABF
:10085000E7DA15E9291E1210A0142C0E3DF4BF3959
:100860004192750B257BA3CE399C1564C8FA3DEFE8
:100870007327FE262ECEDA6EFD718EDDFE76EEDC5F
:10088000125C02C53A4E4E4FBFCA4015C76E8D412D
:10089000F110E04F7E977F1CAE478E6BB12531B0D3
:1008A00073C71B9779F980D366223007741EE4D092
:1008B0008021D6EE6B6C4FBFF5B7D909872FA914ED
:1008C000BE27D9725001D41373A6A751027525E132
:1008D000B345347DA88EEBF31649CB4F8CA1B936C6
:1008E0008539755D0800AEEBF6EAD7133A215A5FF9
:1008F0003084522695C914F257556BB110C2E1BD30
:100900003B51C0B7554C711226C70DF951A438029E
:10091000057FB8F1724BBF718914F37738D9712410
:10092000F30011A1D8D46927083735C9119D901C4F
:100930000EE71CFF2D1EE892E11810957CE080F474
:10094000964321F975216438DD9F1E9516DA561DF0
:100950004F9A53B2E2E418CB6B1A65EB56C63BE5EF
:10096000FED8263F3A84597266A2F375FFFB60B346
:1009700022AD3F2D6BF9EBEA057CD88F6D2C989E4C
:100980002B93F15E46F08749297368D77FF9F0E52C
:100990007DDB1D7519F3C4589B1788A892E0BEBD76
:1009A0008B1D8D9F5676ADAF29E2D9D552F6B5563F
:1009B00035573AC8E156431994D3049B6D35D80B8B
:1009C0005F4D198EECFA64910A72202BBC1A4AFE14
:1009D0008BFDBBED1B23EAAD7282A1299971BDF09D
:1009E00095C103DD7BC2B23C2854D368A472C866AB
:1009F00096E0D1D87FF8D1262BF7ADBA55CA15B9F4
:100A000032C3E588978E5CFB92258BBFA245557A51
:100A1000A76F8B575BCF0ECB1DFB208277A88CCCAA
:100A200016CE1DFADECC0B62FECCE1B7F0C38164BA
:100A30007340A0C24D8911753355338DE84AFDEAE4
:100A40006E300BD7312CDE47E3BFF85542E27F59B9
:100A5000E517EF99346991B1238E20872DA8FED533
:100A60008AF3843AF037E4090054EE674993E4814D
:100A700070E3904DEFFE41B7997BC183BA62126F6C
:100A80007DDE6BAFDA16F95551EEA60C2B02A3FDF5
:100A90008DFB3017E46FDF3671C4CA872548B04735
:100AA000ECEAB4BFA54D9B9F0293C4E3E4E8422D5A
:100AB0006881150AEB845BD6A874FB7D1DCB2CDA0C
:100AC000462A7662CEBC5C9E8BE7CFBE78F57CEB87
:100AD000B33A9CAA6FCC72D159F21123D63F48D1B8
:100AE000B7CEB0BFCBEA80DE57D45E972F75D1501A
:100AF0008E802C6679BF724BBD8A816CD3E101DC9C
:100B0000D21526C536DA2C1AC02794EDB79B850B73
:100B10005E8097C5EC4FEC885D50073547DC0B3B9A
:100B20003DDD60AFA85D813824255D5C15D1DEB365
:100B3000ABEC0569EF83ED5754B864641116326964
:100B4000DA9F2D7F36BB445A34E87FBF03EB007F2A
:100B500059682279CF736C2C29A7A15F38A11DF0A9
:100B60002053E01A6314587110AA080C3E161A603C
:100B700022827FBAA443A0D0AC1BD56B64B514937A
:100B8000319E5350D05766EE5A4FFB032A69587670
:100B9000F183F74EBA8C4206605D6DCE6088AEA4DC
:100BA000C3F103A54B98A1FF67E1ACA2B862D76F70
:100BB000A031B4D277AF211006C69AFF1D09170ED7
:100BC0005FF1AA54344B458A8763A6DCF924306769
:100BD000C6B2D6613369EE50615728E77EEEEC3A33
:100BE0005A734EA88DE418EAEC4164C8E2E866B690
:100BF0002DB6FB6A6C16B3DD4643B973006A71ED1E
:100C00004E9D251AC33C4A95159935811402D698F4
:100C10009BECD8233B8429AF0C9983A69A344FFAD6
:100C2000E8D03C4BD0FBB668B89E8FCDF7602D7AEC
:100C300022E57DAB651B95A7A87FB677477B5F8BC9
:100C40001272D0D491EFDE19503CA78BC4A9B32304
:100C5000CB76E681F0C1048FA3B8545B97AC19FF43
:100C60003F55272FE01D429B57FC4B4E0FCE98A9B6
:100C7000435703BDE7C894DF6E367332B4EF2E8559
:100C80007A6EFC6C188275359007F3E49F3EDC6841
:100C9000F3B5F31980920699A2E86FFF2E7FAE425A
:100CA000A45FFBD40E812BC304FF2BB3744E365BC1
:100CB0009C1500C6472BE88B3DF19C039A587F9BFF
:100CC0009CBF854979352E567B411439478326AA26
:100CD000078998111B86E7737AD87D786153E97983
:100CE000F5368D449284F91350583BA46A36654911
:100CF0008E3C0EF16FD284C47E8E3F39AE7C84F17F
:100D000063378E3CCC3E448145F14BB9ED6B365D8B
:100D1000BB20601A0FA3AA55773AA9AE374DBAB8CF
:100D2000866BBC0850F6CCA4BD1D4072A586FAE2C5
:100D300010AE3D584B97F34374A99EEB21B701A425
:100D4000869397EE2F4F3B86A1416F412690785CAA
:100D50007F30384B3FAAECED5C6F0EAD4387FD93BF
:100D600035E601EF412690999EFB195BADD2918A41
:100D7000E046AF65FA4F84C1A12DCF458BD3855096
:100D8000557CF96788D44EE9D76B6154A1A4A6A21B
:100D9000C2BF309C409F5FD7692B24825ED9D6A703
:100DA00012541AF7559F7650A99584E66B6DB59647
:100DB00054D6CDB3A19B46A7944DC494B498E3E117
:100DC000E234D533160754CDB77753DB4F4D469DEC
:100DD000E9D49C8A36B6B838266C0EFF9C1B438B30
:100DE00080CCB93DDAC7F18AF26DB8D7742F7E1E78
:100DF000B7D34AB4ACFC79486CBC96B69446572D30
:100E0000B0A3FC1EB95260852D41D043011E1CD5F4
:100E10007DFCF3960DC7CB2A299A93DD882D375D8B
:100E2000AAFB4968A09C50867F685657F979183903
:100E3000D4E001843361CAA5D2D6E4C98A4A2344E6
:100E40004EBCF0DC24A1A0C4E2073C10C4B5254B85
:100E50006563F480E7CF61B1718221872CF5910041
:100E6000320CECA9B59A7485E3368F764F9C6DCE23
:100E7000BCAD0A4BED7604CBC3B9339E01939669A2
:100E80007DC5A245799B045C8409ED8843C7AB937B
:100E90001426A140B5CE4EBF2A42853E2C3B54E8D5
:100EA000121F0E9759B22789FAF2DF8E6859DC06B5
:100EB000BCB6850D0622ECB1CBE504E63DB3B041EE
:100EC00073083F3C588663EB50EE1D2C3774A9D352
:100ED00018A3476E9354AD0A5DB82A555D78F6EEB7
:100EE000BE8E3C7669B940C234EC2AB9ED7E20E46E
:100EF0008D0038C7E68F44A886CEEB2AE990F14CE6
:100F0000DF32FB731B6D921E95FEB4DB65DF4D2354
:100F1000548948BF4A2E70D6D762B43329B13A33C8
:100F20004C236DA676A5216348E6905DED90950B68
:100F30007A84BEB80D5E630C62264C145AB3AC239F
:100F4000A474A76F333005600142A028B7EE1938AA
:100F5000F164808243E141271F1F90547AD5232EEC
:100F6000D13DCB28BA587FDC7C9124E92851836E8F
:100F7000C5562142EDA05622A140806BA8F794CA25
:100F8000136B0C39D9FDE9F36FA69EFC708AB3BCD4
:100F9000593C1E1D6CF97CAFF9887195EB5700BD6B
:100FA0009F8C4FE12483C522EAFDD30CE217187C05
:100FB0006A4CDE77B4539B4C81CD2360AA0E257317
:100FC0009C02793230DF74DF7519F4A5145CF77A6E
:100FD000A8A591847C6003063BCD50B6279CFEB14A
:100FE000DDCCD3B05924B2CAE21C81229D078F8E7A
:100FF000B9BE4EFAFC3965BABF9D12375E977EF3D3
:1010000089F55DF5E3098C62B5209D0C538A681B58
:10101000D28F75175DD4E5DA756219146A262DEB47
:10102000F8AF37F06CA455B1BCE233C09ACAB01126
:10103000494F689B3B6B3CCC13F6C785616842AE59
:10104000BBDDCD4516291DEADBC803943CEE4F827B
:1010500011C3EC28BD970599DED7BB5E221FD4EBE8
:1010600064D992D985B76A056AE42441F1CDF0D8F4
:101070003FF89E0ECD0B7A706B5A750A6A3388EC76
:1010800017750870102F24CFC4E942006194CA1F5D
:101090003A7606FAD24881F077600345D961F4A424
:1010A0006F3DD930C3046B542AB7EC3BF44BF56861
:1010B0005226CEFF5D1991A0A3A5A9B1E023C40AD1
:1010C000774DF95120A3A5A9B1C10082868E7F5D1D
:1010D0001991A0A3C4EB540B756852078C9A978D95
:1010E00079706246EF5C1B95897141E121A1A1A154
:1010F000C002674C1AB6CFFD785324ABB5C9F16076
:1011000023A5C812876D5813858892876D5832C7FA
:101110000C9A97ACDA36EE5E3EDF1DB8F2662FBD54
:10112000F87247ED5813858892878C7B550990A2F9
:10113000C6EF3DF85324ABD42AB7EC5A36EE5E3EE8
:10114000DF3CFA764FFD5930E246EF3DF853056932
:1011500031C10082868E7F5D19B0E227CCFB744BD3
:10116000148B948B756833C50892878C9AB6CF1C04
:10117000BAD70D98B2E62FDC1B9589716023C40A9B
:10118000968F9CBAF66E3FFC5B15A8D226AFBDF8D1
:1011900072662FDC1BB4CB148B94AAB7CDF9510126
:1011A0008082866F3DD930E227CCFB744B14AAB7FE
:1011B000CDF97043046B35C9F16023A5C8F3450828
:1011C00092876D5832E62FBDF872664E1EBEFE7EC7
:1011D0007E7E5F1D9991A0A3C40A774D1893A4AB9E
:1011E000D40B754910A2C6EF3DF85324ABB5E833D4
:1011F000E44A16AEDE1FBCDB15A8B3C5087345E98B
:1012000031C1E121A1A1A1C002866F5C3AD70D983E
:1012100093A4CA16AEDE1F9D99B0E246EF3DF87268
:10122000470C9AB6CFFD5911A0A3A5C8F345089263
:10123000876D39F043048A96AEDE3EDF1D9991A09A
:10124000C2066F3DF872470C9A978D989385887304
:1012500045E931E023A5A9D003848A96AEDE1FBC00
:10126000DB15A8D226CEFF5D1991818082672DD82B
:1012700013A4ABD40B94AAB7CDF95120A3A5C8F3FE
:1012800045E95022C6EF5C3AD70D98938588736480
:101290004AF74DF95120A3C40A96AEDE3EFE7E7E8B
:1012A0007E5F3CFA764FFD7872662FBDD930C3E57C
:1012B0004812878C7B5528D2078C9A97ACDA178D09
:1012C000795120A3C4EB540B948B94AAD62EBFFC67
:1012D0005B15A8D226AFDC1BB4EA37EC3BF46A37C7
:1012E000CD1893856931C1E140E325C812878C9AF6
:1012F000B6CFFD5911A0C2068E7F5D38F2470C7B38
:10130000746A37EC5A36EE3FFC7A764F1C9B95890F
:101310007141006344EB542AD60F9CBAD70D9893C1
:10132000856931C10082868E9EBEDF3CFA572CDA79
:1013300036EE3FFC5B158971410082868E7F5D38F9
:10134000F247ED5813A4CAF74DF95101806344EBFD
:10135000542AD62EBFDD1991A0A3A5A9B1E042065B
:101360008E7F5D1991A0A3C40A968F7D7872470C79
:101370007B746A562EDE1FBCFA570D79510161212C
:10138000A1C0E325A9B1C1E14002674C1A978D982D
:1013900093A4ABD42AD60F9C9BB4CB14AAB7CDF997
:1013A0005120A3C4EB35C9F16042068E7F7C7A766A
:1013B0006E3FFC7A766E5E3EFE7E5F3CDB15897189
:1013C00041E121C0E344EB542AB7CDF9706227AD67
:1013D000D832C70C7B744B14AAB7EC3BD528D20784
:1013E0006D39D120C2E74C1A978D98B2C70C592895
:1013F000F39B05010902A10185020901A10005096C
:101400001901290815002501950875018102950229
:101410007508810105010930093116018026FF7F19
:1014200095027510810609381581257F950175088B
:101430008106050C0A38021581257F950175088102
:1014400006C0C005010980A101850319012AB70062
:10145000150126B700950175108100C0050C090122
:10146000A101850419012AA002150126A0029501F7
:1014700075108100C005010906A10185060507193F
:10148000E029E71500250195087501810205071976
:101490000029EF1500250195F07501810205081955
:1014A000012905950575019102950175039101C00A
:1014B00005010906A101050719E029E71500250125
:1014C00095087501810295017508810105071900CC
:1014D00029FF150026FF00950675088100050819EB
:1014E000012905950575019102950175039101C0CA
:1014F00009023B00020100A0FA09040000010301F7
:1015000001000921110100012240000705810308A3
:10151000000109040100010300000009211101007C
:101520000122BE0007058203200001120100020013
:101530000000084D44363401000102000128034434
:101540000061006300740079006C0020004D0061B0
:10155000006E00750066006F0072006D00200034A0
:10156000007800360000000E037400730068006FFE
:1015700000720074000000040309040011241FBE5F
:10158000CFEFDAE0DEBFCDBF04B603FE18C0809116
:10159000180390911903A0911A03B0911B0387308F
:1015A000904BA740B04B59F41092180310921903B6
:1015B00010921A0310921B03E0E0F8E3099511E082
:1015C000A0E0B1E0E0E9FAE602C005900D92AE3885
:1015D000B107D9F723E0AEE8B1E001C01D92A83110
:1015E000B207E1F70E94132C0C9407350C9400000D
:1015F000E8EDF0E080818E7F80831092E20010920F
:10160000DA001092E100A0EEB0E08C9181608C9342
:1016100080818F77808319BCA7EDB0E08C918E7F9D
:101620008C9380818F7E80831092BE0208952091DA
:10163000E4003091E50095E6A9012091EC00822FAD
:10164000817020FF06C08091E80080FF06C080E026
:1016500008952091E80022FD1AC08091E3028823BA
:1016600089F0853089F08091EB0085FD0FC02091D5
:10167000E4003091E50042175307F9F29150E1F68A
:1016800084E0089582E0089583E0089581E008955C
:101690008091E50287FF13C08091E80082FF06C0B9
:1016A0008091E8008B778093E80004C08091E3028A
:1016B0008111F2CF08958091E3028823D9F38091BC
:1016C000E80080FFF8CF8091E8008E77ECCF982F6C
:1016D0009093E900242F762F50E0891731F0709114
:1016E000EC002091ED005091F00021FD07C09F5FBC
:1016F000973071F78093E90081E008953091EB0015
:101700003E7F3093EB003091ED003D7F3093ED0054
:101710003091EB0031603093EB007093EC0020933C
:10172000ED005093F0002091EE0027FDE0CF80E027
:101730000895B0E0A0E0EFE9FBE00C948831C8ED3B
:10174000D0E088818F7E8883E7EDF0E08081816042
:10175000808384E082BF81E08093BE0288818E7F97
:10176000888302EE10E0F80110821092DA0081EE18
:10177000C82ED12CF601108288818F7788838881CA
:101780008068888388818F7D888319BC1092E302EA
:101790001092E4021092E2021092E10290EEE92E21
:1017A000F12CF70180818B7F808388818160888321
:1017B00042E060E080E00E94670BF60180818E7F4E
:1017C0008083F8018081816080838081886080834C
:1017D000F70180818E7F8083888180618883CDB787
:1017E000DEB7E8E00C94A431FC01CB012091EB02C0
:1017F0003091EC022617370790F0009729F42091DA
:10180000E8002E772093E80040E0009751F4411162
:1018100008C08091E80082FF31C080E00895C901CE
:10182000F3CF2091E3022223A9F12530A9F12091E1
:10183000E80023FD2DC02091E80022FDEACF209191
:10184000E80020FFE2CF3091F3002091F2000097F2
:1018500019F02830310558F041E02830310509F001
:1018600040E02091E8002E772093E800CECF419110
:101870004093F10001972F5F3F4FE9CF8091E30242
:10188000882341F0853041F08091E80083FFC1CF8B
:1018900081E0089582E0089583E008958091C00278
:1018A0000895A4E0B0E0E7E5FCE00C948E318FB73A
:1018B000F8942091B8023091B9024091BA02509147
:1018C000BB0229833A834B835C838FBF69817A8112
:1018D0008B819C812496E2E00C94AA31A3E0B0E0D5
:1018E000E4E7FCE00C948E319C018091B50290916C
:1018F000B60282179307A1F03093B6022093B50287
:10190000E091B302F091B402309751F084E0898302
:101910003B832A830680F781E02DCE01019609954D
:101920002396E2E00C94AA31A3E0B0E0EAE9FCE0FF
:101930000C948E319C018091B1029091B202821779
:101940009307A1F03093B2022093B102E091B30269
:10195000F091B402309751F083E089833B832A836E
:101960000680F781E02DCE01019609952396E2E0ED
:101970000C94AA31FC01680F791F8FEF91E321913C
:10198000822728E030E087FF09C0880F892721508F
:101990003109C9F7E617F70791F70895880FF7CFD0
:1019A00080E00895F894E82FE295EF70F0E041A10F
:1019B0008F7021E030E0B90102C0660F771F8A9571
:1019C000E2F7CB01962F9095942391A392A1892BB6
:1019D00082A3789408959091BC0292FF06C0282FAC
:1019E00028712830F9F4877F846093FF06C0282F80
:1019F00028712831F1F4877E84612091BD0220FF97
:101A000006C0382F38713830D9F4877F816021FFC4
:101A100006C0282F28712831D1F4877E816194FD7A
:101A2000877E0895282F24712430F9F68B7F8860F3
:101A3000DCCF282F2471243101F78B7E8861DDCF24
:101A4000382F3171313019F78E7F8860E0CF282F21
:101A50002171213121F78E7E8861E1CF7A30B8F48F
:101A60006630A8F4873098F4E62FF0E096E0799F8E
:101A7000E00DF11D11249CE3899FE00DF11D11245F
:101A8000EE0FFF1FE455FF4F85919491089580E07C
:101A900090E00895CF93DF93EC01803E910509F427
:101AA00075C088F58133910509F4B2C090F489328C
:101AB000910509F4A2C08A9709F4B1C0C130D105DB
:101AC00009F477C0CE010497813A910508F06AC005
:101AD00070C08933910509F44DC08238910509F42D
:101AE00049C08533910509F483C08D3C910508F008
:101AF0001CC1883A910508F099C0853A9105F0F229
:101B0000A497D06456C0843E910509F461C000F5E5
:101B1000823E910509F449C0833E910509F44DC008
:101B2000C11522E5D20708F0A8C0C11530E5D307DA
:101B300008F48CC08C2F8F710E94EB0C35E0D69589
:101B4000C7953A95E1F7CF70DC2FC82FD06931C027
:101B5000863E910509F447C0873E910509F78091BB
:101B6000BC0283FD1DC19091BD0291FF2EC0C4EE49
:101B7000D0E01FC08091BC02837009F00EC180913B
:101B8000BD0283FF16C0C9E2D0E013C08091BC0241
:101B900080FD3BC09091BD0290FF0BC0C3EED0E032
:101BA00084FF07C0D0E0C0E004C08091BC0282FD89
:101BB000F5CFCE01DF91CF9108958091BC0282FDD7
:101BC000E9C09091BD0290FDE8C084FFF2CFEACF5A
:101BD0008091BD0281FFEDCF8091BC02C7EED0E0C5
:101BE00084FDE0CFE6CF8091BC0283FDF7CFE1CF4B
:101BF0008091BC0285FFDDCFC6CF8091BC0285FD00
:101C0000D2C08091BD0283FFD4CFC9E3D0E0D1CF51
:101C10008091BC0286FFCDCFCAE2D0E0CACF8091CE
:101C2000BC0286FFC6CFC1E3D0E0C3CF885A91097A
:101C3000499708F0B7CFC85AD0E0CC0FDD1FC25B80
:101C4000DE4F0990D881C02DD464B3CFC11540E4D4
:101C5000D40780F4C11580E2D80708F08EC0C83ED2
:101C6000D10508F4A6CFCE019A9581159F4108F4BD
:101C7000A0CF98CFDF70D06A9CCFC03832E5D307B1
:101C8000B8F5C03642E5D40708F058C0C03482E544
:101C9000D807C8F4C03292E5D90708F048C02C2F05
:101CA0002695269540E2249F900111248C2F837065
:101CB000C1E0D0E002C0CC0FDD1F8A95E2F7C22B55
:101CC000D32BDD6876CF2C2F26952695277080E2C2
:101CD000289F900111248C2F8370C1E0D0E002C0B6
:101CE000CC0FDD1F8A95E2F7C22BD32BDC6861CFC6
:101CF000C03C92E5D90760F48C2F8F71C03AD24571
:101D000090F5C82FD0E0DC2FCC27C46FD06A51CF1C
:101D1000CE01805C9245809708F044CFDC2FCC2721
:101D2000CC27DF71C06FD06A44CFD06542CFCF716E
:101D3000D0E0DC2FCC27C16FD06A3BCF2C2F26956B
:101D40002695277040E2249F900111248C2F8370E8
:101D5000C1E0D0E002C0CC0FDD1F8A95E2F7C22BB4
:101D6000D32BDA6826CF0E94EB0CC82FD0E0DC2FF3
:101D7000CC27CC27DF71D0621CCF8D2F8F710E94B2
:101D8000EB0C90E0982F882788279F719C012C2BC3
:101D9000E901F1CFC2EED0E00CCFC0EED0E009CF28
:101DA000C6EED0E006CFC5E3D0E003CF80912C0291
:101DB000811110922C020895982F909580912B02FA
:101DC000892380932B02089590914C019923E1F08F
:101DD0009091BC0297FF18C0E82FE695E695E6952E
:101DE000803FF0F4F0E0E057FE4F877021E030E0F4
:101DF000A90102C0440F551F8A95E2F7CA018095D8
:101E00009281892382830895E2E9F1E09191891317
:101E100003C0DF0111971C9251E0E839F507B1F7D3
:101E2000089590914C019923C1F09091BC0297FFC5
:101E300014C0E82FE695E695E695803FF8F4F0E0CB
:101E4000E057FE4F877021E030E001C0220F8A95F5
:101E5000EAF78281822B82830895A2E9B1E0EFEF55
:101E600090E02D91821751F0EF3F19F4211101C03C
:101E7000E92F9F5F9630A9F7EF3F09F408950E2EE2
:101E8000000CFF0BE057FE4FE6CFE0910802909167
:101E9000D70156E0E91302C080E008952E2F30E00C
:101EA0005E9FF0011124E852FE4F7181761306C047
:101EB0007081781303C07281741304C0F9013196E4
:101EC000E770E8CF81E00895809108029091D701F2
:101ED000981301C008958F5F8770FACFB0E0A0E03B
:101EE000E4E7FFE00C9487318C01E0906602F0900B
:101EF00067028091640290916502E82AF92ACFE096
:101F0000D0E0CC24C394D12CBC2EC6010C2E02C030
:101F1000880F991F0A94E2F78E219F21892B49F49B
:101F2000219790F7B12C8B2DCDB7DEB7E9E00C945B
:101F3000A331B8018C2F0E942E0D0E944A0D0197EB
:101F400079F3F1CFCF93DF93D82FC92F0E946E0F73
:101F50006D2F7C2F0E942E0D0E944A0DDF91CF9194
:101F600008959A3078F5863068F5E82FF0E086E03D
:101F7000989FE00DF11D11249E2F977083E0F69538
:101F8000E7958A95E1F7EE0FFF1FEE0FFF1FEF5465
:101F9000FE4F50E040E080E0219130E0092E02C089
:101FA000369527950A94E2F721703327042E01C055
:101FB000220F0A94EAF7822B4F5F5F4F443051059E
:101FC00059F7089580E008959A3098F5863088F59D
:101FD000E82FF0E086E0989FE00DF11D11248E2F90
:101FE000877041E001C0440F8A95EAF783E0F695D7
:101FF000E7958A95E1F7EE0FFF1FEE0FFF1FEF54F5
:10200000FE4F30E020E070E05191DF011197CB01ED
:10201000022E02C0969587950A94E2F78170819509
:102020008527842385278C932F5F3F4F24303105EC
:1020300059F7089590936502809364020895FC0116
:1020400083819481892B29F08081918189238F3F1D
:1020500069F480E00895243FE1F71CC081E0283E48
:1020600020F0213FB1F716C0089508958081918135
:102070000E94A20F282F92959F70963079F358F402
:10208000925F9F70923028F781E0203F69F318F744
:10209000283EF8F608959A5FF4CF80E008950F93F4
:1020A0001F93CF93DF938B01EA019091E302943069
:1020B00061F58093E9008FEF9091E800815095FDE4
:1020C00006C095ED9A95F1F700008111F5CF80914A
:1020D000E80085FF1AC00E94170B811111C0809182
:1020E000E80085FD06C08091E8008E778093E800C7
:1020F000F2CFF80181918F018093F100219779F758
:102100008091E8008E778093E800DF91CF911F9156
:102110000F910895BC0143E050E082E00E944F100F
:102120000895BC014AE050E082E00E944F100895FB
:10213000CF93DF93D82FC92F80914C01811113C009
:1021400048E050E06D2F792F81E00E944F1080E22F
:10215000ED2FFC2FA1ECB2E001900D928A95E1F7F2
:10216000DF91CF9108958091BC0287FF06C040E2C5
:1021700082E050E06D2F7C2FE8CF48E081E0F9CF7E
:10218000B0E0A0E0E6ECF0E10C948631F82EE92E08
:10219000D62EC72E8A0180915102AA24A394B12C75
:1021A0008A3018F48AE0A82EB12CC1E0D0E06D2D61
:1021B0007C2D8F2D9E2DF8010995811104C021964B
:1021C000AC16BD062CF4CDB7DEB7EAE00C94A23114
:1021D000CC9F9001CD9F300D300D112490E080E018
:1021E00045E34A95F1F70000019682179307C1F77E
:1021F000DECF80913D02811110C08091D8008061B6
:102200008093D8008AE18A95F1F700C08091D900C7
:1022100080FF0AC081E080933D0281E090913D0201
:10222000913009F080E0089582E080933D020E94A1
:10223000F80A1092E302F1CF0E94F910882359F0B6
:10224000E091B302F091B402309729F00190F0814F
:10225000E02D0995089580E00895CF93DF93D82F5E
:10226000C92F0E94F910882339F08D2F9C2F0E94CE
:102270008511DF91CF910895D093AE02C093AF0244
:10228000F8CFCF9328E030E043E060E087EF0E9492
:10229000472EC82F811105C00E94232F8C2FCF916C
:1022A000089585E08A95F1F70000F8CFA2E0B0E04C
:1022B000ECE5F1E10C948B31182FF62E0E944111C0
:1022C000082F811106C000E0802F2296E5E00C94D3
:1022D000A731103511F01092ED0210681983FA82BF
:1022E00062E070E0CE0101960E94F32E892B59F72F
:1022F0008AEB8A95F1F700C00E94232F83E492E0D5
:102300000197F1F700C00000DFCF64E670E00E94A3
:102310006A31615071096837710510F067E770E044
:102320008FE00E9456110895CF93C82F0E9441114B
:102330008823C9F08C2F0E94C32E8FE792E001976B
:10234000F1F700C000000E94DB2EC82F95E09A959F
:10235000F1F700000E94232F85E68A95F1F700002F
:102360008C2FCF910895C0E0FBCF8FE00E94941195
:102370008F5F24E6829FC00111240895E0EFF2E010
:1023800084E0DF011D928A95E9F7EEEEF2E08081AC
:1023900081830895CF93C82F8091EF028C1721F08D
:1023A0000E94BE11C093EF02CF910895CF93DF93A7
:1023B000D82FC92F292F30E048E02115310519F415
:1023C000282F392F40E0C90164E0969587956A95DA
:1023D000E1F7009711F04C5F9C01C9019695879534
:1023E00096958795009711F04E5F9C01369527953D
:1023F000232B19F04F5F4530C9F0463021F14430AE
:1024000089F581E00E94CA1184E690E00E942D11B6
:1024100081E080938F0210929502109290021092A8
:102420004B018D2F9C2FDF91CF91089582E00E9468
:10243000CA118CE291E00E942D1181E080939502F7
:1024400010928F02EACF83E00E94CA1188EC90E0DC
:102450000E942D1181E08093900210928F021092C1
:102460009502DDCF80E00E94CA1184E690E00E94D0
:102470002D1181E080934B011092950210929002F1
:1024800010928F02CECF0E94D61190936702809354
:102490006602089521E030E002C0220F331F8A95C2
:1024A000E2F7209530958091660290916702822331
:1024B00093230E94431208959091090280958923E5
:1024C00080930902282F277091F4282F082E000CE2
:1024D000330B9217130659F09091BD0292FF07C07B
:1024E0008595859585950E944A1210920902089556
:1024F00021E030E002C0220F331F8A95E2F780917D
:10250000660290916702822B932B0E9443120895DA
:10251000A6E1B0E0EEE8F2E10C9488316C01ED86C2
:10252000FE860F87188B298B3A8B4B8B5C8B6D8BC0
:102530007E8B8E01095F1F4F86E0F80111928A950C
:10254000E9F78091ED02811136C060E080E50E94DC
:10255000561181112DC086E0FE013796DE011196DD
:1025600001900D928A95E1F786E0FE013196DE0139
:10257000179601900D928A95E1F7898187FB88274C
:1025800080F94B815C812D813E819F8180FB97F991
:102590009F8393FF36C08AE0FE013D96D6010190ED
:1025A0000D928A95E1F7C6016696E8E00C94A43195
:1025B00081E08093ED020E944111882361F280E561
:1025C0000E94C32EFAEBFA95F1F700C066E070E0C6
:1025D000C8010E940B2F8F81877011F01092ED02BD
:1025E0000E94232F89859A859195819591099A87D3
:1025F00089878B859C859195819591099C878B878F
:10260000AACF811103C01092B002C5CF8091B00251
:10261000811103C081E08093B0025A8B498B3C8BBF
:102620002B8BB9CF0F931F93CF93DF930E943F2E35
:102630000E944111882309F488C025ED2A95F1F7FD
:1026400000000E94232F85ED8A95F1F700006AE5CE
:102650008AE30E945611882309F477C09FEFE0E7D0
:10266000F2E09150E040F040E1F700C0000082E06D
:102670000E94941183E00E94941184E00E949411BE
:1026800085E00E94941186E00E9494116DE183E13F
:102690000E945611882309F458C08FE39CE90197E2
:1026A000F1F700C0000068E183E10E9456110E942A
:1026B0004111882309F449C082EE0E94C32E90E59F
:1026C0009A95F1F7C4EFD3E002EF13E1FE01849194
:1026D0000E94C32EF0E5FA95F1F721960C171D071D
:1026E000A9F78FE193E00197F1F700C000008AE2BB
:1026F0000E94941160E080E10E9456110E94232FF5
:10270000EFE3FCE93197F1F700C0000060E08FE0F3
:102710000E9456118FE99FE00197F1F700C0000079
:1027200060E080E10E94561162EE81E10E94561144
:1027300065E183E60E94561180E00E9494118FE3C8
:102740000E9494118AE20E949411DF91CF911F910F
:102750000F9108954AE050E060E872E080EA92E06C
:102760000E94F134892B69F1E091B302F091B40237
:10277000309739F182E08093A0028091A402909179
:10278000A5028038910584F581382FEF920714F463
:1027900081E89FEF8093A2028091A6029091A70208
:1027A000803891051CF58138AFEF9A0714F481E861
:1027B0009FEF8093A3020480F581E02D80EA92E0F0
:1027C00009959091A1028AE0E0EAF2E0DF01282F6A
:1027D0001D922A95E9F79093A102A0E8B2E001903A
:1027E0000D928A95E1F708958FE7D4CF8FE7E1CF77
:1027F0002FE2280F283078F481E090E001C0880FA4
:102800002A95EAF72091A102662331F0822B80936A
:10281000A1020E94AA13089580958223F8CF809187
:102820002B0290912A02892B8093900190912C0287
:102830009923A1F0892B8093900180914C018823EA
:10284000E1F18091BC0287FF38C08EE1E2E9F1E05E
:1028500090E08150A0F591110E94D60E40E250E028
:102860006AE072E080E991E00E94F134892B21F165
:1028700080E2E0E9F1E0AAE0B2E001900D928A95F1
:10288000E1F7E091B302F091B4023097A9F08091A2
:102890004C01882359F08091BC0287FF07C08091CA
:1028A00090018093910186E0809390010280F381F2
:1028B000E02D80E991E00995089586E0C7CF219148
:1028C000222339F29F5FC5CF10922B0280914C01D9
:1028D000E2E9F1E08823B1F08091BC0287FF12C0E9
:1028E0008EE1DF011D928A95E9F790E080E00E9479
:1028F000940C90E080E00E946E0C10922A020E94DC
:102900000F14089586E0EDCFAAE2B0E0EAE8F4E122
:102910000C948D3185EE92E0FC0101962091F1003E
:10292000208322E08D3E9207B9F78091E60289303C
:1029300009F456C0C8F4823009F4B2C0833009F4F7
:1029400081C0813071F18091E80083FF7CC2809169
:10295000E5029091E6029A3008F075C2E92FF0E0A6
:10296000E75FFA4C0C94B5318A3009F488C08B309B
:1029700051F78091E502813231F78091E90290911F
:10298000EA02892B01F78091E800877F8093E800B5
:102990000E94480B8091E70280934C010E946414CE
:1029A000D2CF8091E502813A71F68091E800877F6D
:1029B0008093E8008091E9029091EA02892B61F40A
:1029C00060E281EC92E070E00E94F40B8091E800FC
:1029D0008B778093E800B7CF60E090E080E0F3CFA2
:1029E0008091E502813209F0AECF8091E9029091A9
:1029F000EA02029708F0A7CF8091E800877F8093D2
:102A0000E8008091E80082FF18C09091F300809167
:102A1000F200029731F48091F100813011F086309C
:102A200021F48091F1008093C0028091E8008B77BF
:102A30008093E8000E94480B86CF8091E3028111C9
:102A4000E0CF81CF8091E502813A09F07CCF80917F
:102A5000E9029091EA02892B09F075CF8091E80094
:102A6000877F8093E8008091E80080FFFCCF809111
:102A70004C018093F1008091E8008E77D9CF80914E
:102A8000E502813209F05FCF8091E800877F809373
:102A9000E8000E94480B8091E8028093BF0253CF68
:102AA0008091E502813A09F04ECF8091E800877F5E
:102AB0008093E8008091E80080FFFCCF8091BF0206
:102AC000D8CF803899F0823809F0BDC18091E902F1
:102AD0008F70873008F0B7C18093E9008091EB00D8
:102AE00085FB882780F91092E90006C08091E102F9
:102AF0009091E202911182609091E800977F90930B
:102B0000E8008093F1001092F1008091E8008E7748
:102B100096C1882309F484C1823009F094C1809160
:102B2000E702811187C18091E9028F702FEF280F92
:102B3000263008F088C18093E9002091EB0020FF47
:102B400079C1933031F48091EB0080628093EB0087
:102B500071C19091EB0090619093EB0021E030E027
:102B600001C0220F8A95EAF72093EA001092EA004A
:102B70008091EB008860EACF811165C11091E70276
:102B80001F778091E3008078812B8093E300809110
:102B9000E800877F8093E8000E94480B8091E8005E
:102BA00080FFFCCF8091E30080688093E30082E0A7
:102BB000111183E08093E30246C18058823008F00F
:102BC00042C14091E7025091E8024C3D83E0580732
:102BD000A1F583E08A838AE289834FB7F894DE0106
:102BE000139620E03EE051E2E32FF0E050935700CF
:102BF000E49120FF03C0E295EF703F5FEF708E2FEE
:102C000090E0EA30C0F0C7968D939D932F5F2431FA
:102C100059F74FBF8091E800877F8093E8006AE210
:102C200070E0CE0101960E94F40B8091E8008B7752
:102C30008093E80008C1C096E7CF2091E902309167
:102C4000EA02852F99278330910509F160F48130DC
:102C5000910509F472C0029709F0F5C08BE390E08A
:102C6000E0EFF4E129C08132910509F45AC082975E
:102C700009F0E9C02115310509F469C02130310599
:102C800009F0E1C08EEB90E0E2EFF3E115C0CA017C
:102C900099274130B1F18230910509F43AC0892B6E
:102CA00009F0D1C0E7E7F5E1E4918E2F90E0E7E786
:102CB000F5E1009709F4C7C02091E800277F209331
:102CC000E8002091EB023091EC028217930708F4A0
:102CD0009C0140E02115310509F03EC041113CC086
:102CE0008091E80082FDA1CF8091E302882309F45E
:102CF0009CCF853009F499CF8091E80083FFF0CF15
:102D000094CFE7E6F5E1E4918E2F90E0E7E6F5E178
:102D1000D0CFEDE3F5E1E4918E2F90E0EDE3F5E126
:102D2000C8CF2115310571F02130310509F08BC074
:102D300089E090E0EBE1F5E1BFCF82E190E0EBE2EA
:102D4000F5E1BACF89E090E0E2E0F5E1B5CF80E4CB
:102D500090E0E0EBF4E1B0CF8091E302882309F446
:102D600064CF853009F461CF8091E80083FD5DCFA9
:102D70008091E80082FDB4CF8091E80080FFAACF67
:102D80009091F3008091F2002115310519F08830FF
:102D9000910550F041E0089709F040E08091E8008B
:102DA0008E778093E80096CF44914093F10031965E
:102DB000215031090196E8CF803809F044C0809154
:102DC000E800877F8093E8008091E4028093F1001F
:102DD0009CCE811138C01091E7021230A0F580918D
:102DE000E800877F8093E8001093E4020E94480B7C
:102DF000112311F084E005C08091E30087FDFACF34
:102E000081E08093E30242E061EC81E00E94670B85
:102E100042E261EC82E00E94670B8091E30213C002
:102E20008091E702813079F481E0933009F080E00D
:102E30008093E2021092E9008091E800877F8093FE
:102E4000E8000E94480B8091E80083FF0AC080914F
:102E5000E800877F8093E8008091EB008062809398
:102E6000EB00AA96E3E00C94A9310E9464142FEFC2
:102E700084E39CE0215080409040E1F700C00000D6
:102E800088E19CE00FB6F894A895809360000FBE8F
:102E900090936000FFCF882341F0809590912A02A3
:102EA000892380932A020E940F140895882339F001
:102EB00090912A02892B80932A020E940F14089570
:102EC000882321F00E94DC0E0E940F1408958823AD
:102ED00039F090912B02892B80932B020E940F14C2
:102EE0000895882309F456C0823879F40E941C1191
:102EF00081FF50C089E30E94110F0E940F1489E3E3
:102F00000E94E40E0E940F140895833859F40E9421
:102F10001C1180FF3FC083E50E94110F0E940F1417
:102F200083E5EECF843859F40E941C1182FF32C031
:102F300087E40E94110F0E940F1487E4E1CF9CEFF9
:102F4000980F913AE8F290E2980F983050F4877019
:102F500091E001C0990F8A95EAF7892F0E94DC0E53
:102F6000D1CF9BE5980F933028F490E080E00E9449
:102F7000940C089598E5980F993128F490E080E03A
:102F80000E946E0C089593E3980F933118F460E05B
:102F90000E94F8130895CF93C82F8823C9F0823870
:102FA000C9F40E941C1181FD13C089E30E94110F16
:102FB0000E940F142FEF37EE83E021503040804005
:102FC000E1F700C0000089E30E94E40E0E940F14A4
:102FD000CF9108958338A1F40E941C1180FDF8CF91
:102FE00083E50E94110F0E940F149FEF21EE34E041
:102FF000915020403040E1F700C0000083E5E4CF6D
:103000008438A1F40E941C1182FDE2CF87E40E9463
:10301000110F0E940F148FEF91EE24E08150904029
:103020002040E1F700C0000087E4CECF8CEF8C0F8A
:10303000813A88F580914C01882301F18091BC028E
:1030400087FF1CC0EC2FE695E695E695F0E0E0578B
:10305000FE4F828190E04C2F477021E030E002C0AB
:10306000220F331F4A95E2F782239323892B79F0AD
:103070008C2F0E94E40E0E940F1409C0E2E9F1E0D7
:103080008191C817A9F331E0E839F307C9F78C2F0C
:103090000E94110F9BCF80E28C0F883068F4C770BC
:1030A00021E030E001C0220FCA95EAF780912B029F
:1030B000822B80932B028ACF8BE58C0F833038F4E0
:1030C0002C2F2452330BC9010E94940C81CFE8E5C8
:1030D000EC0FE93150F4F0E0EE0FFF1FE25BFE4F22
:1030E000808191810E946E0C73CF83E38C0F8331BA
:1030F00008F06ECF61E08C2F0E94F81369CFCF9358
:10310000DF93EC010097B9F490E080E00E944D104D
:103110000E9467178C2F0E94CB178C2F0E9471176B
:10312000209771F490E080E00E944D100E9460179B
:10313000DF91CF9108950E944D100E945617EACF5B
:10314000CE010E944D100E944B17F2CFB0E0A0E0DC
:10315000ECEAF8E10C948431B82EA92EF62EE72E75
:10316000D42EC52E922E832EA091F002B091F102A2
:10317000ED01B7FF04C0CC27DD27CA1BDB0BE091B4
:10318000F202F091F302AF01F7FF04C04427552784
:103190004E1B5F0B4C175D07BCF595E0D695C795A8
:1031A0009A95E1F710E000E0919714F50C171D07D0
:1031B00011F18B2D9A2D0E947F188091F002909131
:1031C000F10280969093F1028093F0020F5F1F4FFF
:1031D000EDCF892D982D0E947F188091F00290915B
:1031E000F10280979093F1028093F0020F5F1F4FDE
:1031F0000C171D0771F71092F3021092F202CDB76F
:10320000DEB7ECE00C94A031EA0185E0D695C795D5
:103210008A95E1F710E000E0B19714F5C017D107E7
:1032200011F18F2D9E2D0E947F188091F2029091B6
:10323000F30280969093F3028093F2020F5F1F4F88
:10324000EDCF8D2D9C2D0E947F188091F2029091E0
:10325000F30280979093F3028093F2020F5F1F4F67
:10326000C017D10771F71092F1021092F002C7CF88
:10327000A2E4B0E0EEE3F9E10C947E310E94F91093
:10328000882309F4B0C34091AA025091AB02609127
:10329000AC027091AD022FB7F8948091B802909172
:1032A000B902A091BA02B091BB022FBF48175907CB
:1032B0006A077B0709F497C30E94510C6093AA0226
:1032C0007093AB028093AC029093AD020E94F91010
:1032D000882309F4BFC1E090A002F090A102009100
:1032E000A2021091A3022091A4023091A502409164
:1032F000A6025091A7026091A8027091A902CE0186
:10330000C3960E9488128AE0FE01F396A0EAB2E01A
:1033100001900D928A95E1F78AE0E0EAF2E0DE01A1
:103320001B9601900D928A95E1F7A090A402B090AF
:10333000A502002711270A191B09188B0F878AE09D
:10334000FE013B96DE01119601900D928A95E1F700
:103350001E830D838AE0FE013196A0EAB2E001905F
:103360000D928A95E1F78AE0E0EAF2E0DE015596F7
:1033700001900D928A95E1F78AE0FE017596DE01D3
:10338000119601900D928A95E1F7EB8CFC8C80915F
:103390009502882309F465C1C501B7FCC8019C01E9
:1033A000990F440B550B21962CAF3DAF4EAF5FAF3D
:1033B0002197CA01B9010E94A7322B013C01C70124
:1033C000F7FE04C0882799278E199F099C01990F41
:1033D000440B550B21962CAF3DAF4EAF5FAF2197FD
:1033E000CA01B9010E94A7324B016C0126E636E6FC
:1033F00046EA5FE36DAF9EAE8FAF2196DFAE2197B9
:1034000021966CAD7DAD8EAD9FAD21970E945C3352
:103410009B01AC014DAE5EAE6FAE21967FAE2197A3
:1034200021966CAD7DAD8EAD9FAD21970E94573337
:1034300018160CF413C126E636E646EA5FE3219639
:103440006CAD7DAD8EAD9FAD21970E945C339B012D
:10345000AC018DAE9EAECFAE2196DFAE2197219608
:103460006CAD7DAD8EAD9FAD21970E945733670146
:10347000181614F410E000E04601D7FE04C08824BA
:1034800099248C189D08009FC001019F900D900DFC
:1034900011249C01990F440B550B21962CAF3DAF85
:1034A0004EAF5FAF2197CA01B9010E94A73220E059
:1034B00030E040E85EE36DAF7EAF8FAF21969FAF07
:1034C000219721966CAD7DAD8EAD9FAD21970E9469
:1034D0005C332B013C01C80117FF04C088279927E2
:1034E000801B910B9C01990F440B550B21962CAF1F
:1034F0003DAF4EAF5FAF2197CA01B9010E94A7321D
:1035000026E636E646EA5FE36DAF7EAF8FAF2196E3
:103510009FAF219721966CAD7DAD8EAD9FAD21976C
:103520000E945C339B01AC014DAE5EAE6FAE219646
:103530007FAE219721966CAD7DAD8EAD9FAD21976D
:103540000E94FE31462F572FBC0121964CAF5DAF34
:103550006EAF7FAF2197BA01101611067CF021964D
:103560008CAD9DADAEADBFAD2197B05821968CAF5F
:103570009DAFAEAFBFAF2197BC01CD010E946F32AE
:103580007093940260939302CC9CC001CD9C900DEB
:10359000900D11249C01990F440B550B21962CAFD3
:1035A0003DAF4EAF5FAF2197CA01B9010E94A7326C
:1035B00020E030E040E85EE36DAF7EAF8FAF219654
:1035C0009FAF219721966CAD7DAD8EAD9FAD2197BC
:1035D0000E945C333B018C01C401990CAA0BBB0B0C
:1035E00021968CAF9DAFAEAFBFAF2197BC01CD018F
:1035F0000E94A7329B01AC016DAE7EAE0FAF21964B
:103600001FAF219721966CAD7DAD8EAD9FAD2197FB
:103610000E94FE31462F572FBC0121964CAF5DAF63
:103620006EAF7FAF2197BA011C141D047CF0219668
:103630002CAD3DAD4EAD5FAD2197505821962CAFCE
:103640003DAF4EAF5FAF2197CA01B9010E946F3203
:10365000CB0112C08AE0E6E9F2E058CED12CC12CB1
:103660000BCF80919002882361F010939402009315
:103670009302C701880F991F909392028093910241
:1036800008C080918F0281113FC080914B01811150
:1036900051C1C0909302D09094028090910290907A
:1036A0009202EA28FB28E114F10409F445C10E94C2
:1036B000510C60938B0270938C0280938D029093D7
:1036C0008E0281E080938A0240918B0250918C029D
:1036D00060918D0270918E022FB7F8948091B8029C
:1036E0009091B902A091BA02B091BB022FBF841B86
:1036F000950BA60BB70B8F3E9240A105B10508F4C0
:103700001FC110928A021CC19501B7FC9801C70124
:10371000F7FE04C0882799278E199F09D12CC12C48
:10372000821793071CF0670110E000E04601D7FE06
:1037300004C0882499248C189D082090470130905B
:1037400048014090490150904A01C80117FF04C048
:1037500088279927801B910B9C01990F440B550BCF
:1037600021962CAF3DAF4EAF5FAF2197CA01B90193
:103770000E94A732A20191016DAF7EAF8FAF21965B
:103780009FAF219721966CAD7DAD8EAD9FAD2197FA
:103790000E945C332AE939E949E15FE36DAF7EAF0E
:1037A0008FAF21969FAF219721966CAD7DAD8EADE9
:1037B0009FAD21970E945C333B0122968FAF2297E9
:1037C00023969FAF2397009FC001019F900D900DFE
:1037D00011249C01990F440B550B21962CAF3DAF42
:1037E0004EAF5FAF2197CA01B9010E94A73220E016
:1037F00030E040EA50E46DAF7EAF8FAF21969FAFCF
:10380000219721966CAD7DAD8EAD9FAD21970E9425
:103810005C339B01AC016DAE7EAE22968FAD2297DC
:103820008FAF23969FAD239721969FAF2197219627
:103830006CAD7DAD8EAD9FAD21970E94FE31462FC0
:10384000572FBC0121964CAF5DAF6EAF7FAF219774
:10385000BA01101611067CF021962CAD3DAD4EAD8F
:103860005FAD2197505821962CAF3DAF4EAF5FAF63
:103870002197CA01B9010E946F327093940260933C
:103880009302CC9CC001CD9C900D900D11249C0105
:10389000990F440B550B21962CAF3DAF4EAF5FAF48
:1038A0002197CA01B9010E94A7322AE939E949E9F9
:1038B00050E46DAF7EAF8FAF21969FAF21972196D9
:1038C0006CAD7DAD8EAD9FAD21970E945C333B0109
:1038D0008C01C401990CAA0BBB0B21968CAF9DAF38
:1038E000AEAFBFAF2197BC01CD010E94A732A201AC
:1038F00091016DAF7EAF8FAF21969FAF219721963B
:103900006CAD7DAD8EAD9FAD21970E945C332AE9F1
:1039100039E949E15FE36DAF7EAF8FAF21969FAF8D
:10392000219721966CAD7DAD8EAD9FAD21970E9404
:103930005C3360CE6701FACE80918A028111C4CED9
:10394000DE82CD8298868F828AE0FE013196DE018A
:103950001B9601900D928A95E1F7D88ACF869A8AB4
:10396000898A8AE0FE013B96A0EAB2E001900D92BE
:103970008A95E1F78AE0E0EAF2E0DE0199960190AB
:103980000D928A95E1F72091A4023091A5028091D1
:10399000A6029091A7020091A8021091A90240915D
:1039A000EF02411125C03EA72DA798AB8FA709AB09
:1039B0001AAB4AE0FE01B996DE01119601900D9214
:1039C0004A95E1F73E832D8398878F8309871A876D
:1039D0008AE0FE013196A0EAB2E001900D928A954C
:1039E000E1F70E94AA13CE5BDF4FE2E10C949A311B
:1039F00045E0EFEEF2E0DE01559601900D924A951A
:103A0000E1F76091F0027091F1024091F202509161
:103A1000F3023EA72DA798AB8FA709AB1AAB8AE09C
:103A2000FE01B996DE01119601900D928A95E1F79B
:103A3000C60ED71E48195909DF8ACE8A598F488F7A
:103A400025E0FE017596DE011B9601900D922A95E8
:103A5000E1F7DD86CC865F874E8785E0FE013B96E9
:103A6000AFEEB2E001900D928A95E1F71E821D82C1
:103A700018861F8209871A878AE0FE013196DE01C7
:103A8000999601900D928A95E1F74091EF0220916D
:103A9000F0023091F1028091F2029091F3021EA6A1
:103AA0001DA618AA1FA609AB1AAB5AE0FE01B996CB
:103AB000DE015F9601900D925A95E1F7423009F4CC
:103AC00080C0433009F488C0413059F5B90137FF4F
:103AD00002C0615F7F4FE4E075956795EA95E1F775
:103AE000162FAC0197FF02C0415F5F4F74E0559500
:103AF00047957A95E1F7042F51E05093EF02A0E14A
:103B00006A022019310911243093F1022093F00246
:103B1000B0E14B028019910911249093F302809334
:103B2000F2021CA21BA21EA21DA20FA318A78AE0CC
:103B3000FE017F96DE011B9601900D928A95E1F7BA
:103B4000188A1F861A8A198A0B8B1C8B8AE0FE0141
:103B50003B96DE01119601900D928A95E1F71E8247
:103B60001D8218861F8209871A878AE0FE01319616
:103B7000DE01559601900D928A95E1F71A8E198E05
:103B80001C8E1B8E0D8F1E8F8AE0FE017596DE0146
:103B9000999601900D928A95E1F71EA61DA618AA86
:103BA0001FA609AB1AAB8AE0FE01B996DE01119699
:103BB00001900D928A95E1F790E080E030E020E0FE
:103BC00001CF2FE430E042E550E061E570E080E5B0
:103BD00090E00E94A618A5CF30E020E049EA50E02E
:103BE0006AEA70E090E080E0F4CF9091BD0292FB31
:103BF000222720F9281779F080FB92F99093BD02D3
:103C00006091BC027091BD0284E090E00E94E731B7
:103C100082E00E945C120895B0E0A0E0E2E1FEE1E3
:103C20000C948131582EFA015901680198E08902FB
:103C3000E0011124EF2B61F4FE01EA5FFE4F868163
:103C40009781892B51F5C114D104D9F581E020C0A9
:103C5000DE01AA5FBE4FEC90F12C4E155F0508F413
:103C60007A01FE01EA5FFE4F81809280C401845098
:103C70009D4F3C01A7010E94FE3404E610E097012D
:103C8000A301682D82E30E943D3097FFD5CF80E0ED
:103C9000CDB7DEB7EFE00C949D315092FC026091FD
:103CA0000701709108012091060130E0AB014450FA
:103CB0005D4F04E610E082E30E943D3097FFC3CFE2
:103CC000E6CFFE01EA5FFE4FE380F12CCE14DF0465
:103CD00008F47601CA5FDE4F6C817D81AB014450F0
:103CE0005D4F04E610E0970182E30E94683097FD83
:103CF000CECF6C817D8164507D4FA701C5010E94AC
:103D0000FE34A4CFA8E0B0E0E8E8FEE10C948C31EA
:103D100040914702509148026091490270914A02D5
:103D20002FB7F8948091B8029091B902A091BA028D
:103D3000B091BB022FBF841B950BA60BB70B11E0F4
:103D400084369105A105B10550F10E94F910882330
:103D500059F10E94510C462F572FBC014E5F5F4F07
:103D60006F4F7F4F49835A836B837C8310E000E061
:103D700030E020E044E050E0BE016F5F7F4F83E021
:103D80000E940C1E182F882351F00E94510C609342
:103D90004702709348028093490290934A02812F10
:103DA0002896E4E00C94A8310E94510C6D837E8328
:103DB0008F83988740915202509153026091540230
:103DC000709155028D819E81AF81B885480F591F32
:103DD0006A1F7B1FC3CFA1E0B0E0E1EFFEE10C94CE
:103DE0008231662E4A01722EA32EB02EC12E01E022
:103DF00010E09E012F5F3F4F50E040E070E060E038
:103E00000E940C1ED82E882309F443C0D4014D9182
:103E10005D916D917C912FB7F8948091B80290914B
:103E2000B902A091BA02B091BB022FBF841B950BBF
:103E3000A60BB70B84369105A105B10540F4B70177
:103E40008B2D9C2D0E94BA0C9981891711F1870145
:103E5000272D3A2D50E040E070E060E0862D0E9472
:103E60000C1ED82EB7018B2D9C2D0E94BA0C91E010
:103E70002981281390E0D92239F00E94510CF401D5
:103E800060837183828393838D2D2196EEE00C9461
:103E90009E31A7016B2D7C2D872D9A2D0E94FE341B
:103EA000F3CFA4E1B0E0E7E5FFE10C948A310E9492
:103EB000F910811145C08AE0E82EF12C08E013E0EA
:103EC0009E01255F3F4F4DE452E065E084E00E9493
:103ED000EB1E882391F09AE0FE013B96DE011196DD
:103EE00001900D929A95E1F79AE0FE013196A6E9CC
:103EF000B2E001900D929A95E1F7E090AE02F09059
:103F0000AF02E114F104E1F020914B0230914C0238
:103F10002E153F05A9F0F0921303E092120310E072
:103F200000E030E020E042E050E062E173E086E053
:103F30000E940C1E882321F0F0924C02E0924B026A
:103F40006496E6E00C94A631A5E0B0E0EAEAFFE171
:103F50000C9488316B0185E0E82EF12C0EEF12E015
:103F60009E012F5F3F4F43E452E062E081E00E94F8
:103F7000EB1E882349F095E0FE013196AEE3B2E0F6
:103F800001900D929A95E1F795E0EEE3F2E0D6010B
:103F900001900D929A95E1F72596E8E00C94A431F2
:103FA0001F920F920FB60F9211242F933F934F93AE
:103FB0005F936F937F938F939F93AF93BF93CF93B1
:103FC000DF93EF93FF93D091E900DF708091EC00D5
:103FD000C82FC17080FDC0E81092E9008091F00008
:103FE000877F8093F00078940E9484141092E900F7
:103FF0008091F00088608093F000CD2BCF70C0934B
:10400000E900FF91EF91DF91CF91BF91AF919F9127
:104010008F917F916F915F914F913F912F910F9071
:104020000FBE0F901F9018951F920F920FB60F9210
:1040300011242F933F934F935F936F937F938F93AD
:104040009F93AF93BF93EF93FF938091E10082FF23
:1040500009C08091E20082FF05C08091E1008B7F62
:104060008093E1008091DA0080FF24C08091D80025
:1040700080FF20C08091DA008E7F8093DA008091EB
:10408000D90080FF9BC080E189BD82E189BD09B470
:1040900000FEFDCF81E08093E3028091BE0281119A
:1040A00009C00E94F80A0E94990B8091E200846086
:1040B0008093E2008091E10080FF17C08091E200D0
:1040C00080FF13C08091E2008E7F8093E200809198
:1040D000E20080618093E2008091D800806280934A
:1040E000D80019BC85E08093E3028091E10084FF51
:1040F00029C08091E20084FF25C080E189BD82E172
:1041000089BD09B400FEFDCF8091D8008F7D8093DA
:10411000D8008091E1008F7E8093E1008091E200E1
:104120008F7E8093E2008091E20081608093E200C4
:104130008091E402882309F447C084E08093E3027D
:104140008091E3028091E10083FF27C08091E2002B
:1041500083FF23C08091E100877F8093E10082E0AC
:104160008093E3021092E4028091E1008E7F8093BD
:10417000E1008091E2008E7F8093E2008091E20076
:1041800080618093E20042E060E080E00E94670B83
:104190008091F00088608093F000FF91EF91BF91D3
:1041A000AF919F918F917F916F915F914F913F91CF
:1041B0002F910F900FBE0F901F90189519BC109261
:1041C000E3021092BE0276CF8091E30087FD02C029
:1041D00081E0B4CF83E0B2CF78941F921FB61F92D4
:1041E00011248F939F93AF93BF938091B8029091C6
:1041F000B902A091BA02B091BB020196A11DB11DF6
:104200008093B8029093B902A093BA02B093BB0214
:10421000BF91AF919F918F911F901FBE1F901895D6
:104220009C014FB7F8948091B8029091B902A09187
:10423000BA02B091BB024FBF821B930B08952FB7F8
:10424000F8948091B8029091B902A091BA02B0910D
:10425000BB022FBF0895FF920F931F93CF93DF935D
:10426000C62FD42F122FFC0182818823A9F06093DE
:10427000F6020E941F219093F5028093F402C7700A
:1042800081E001C0880FCA95EAF70E946717CDB791
:10429000DEB7E5E00C94A7318091F602681333C0D5
:1042A0008091F4029091F5020E941021883C9105C2
:1042B00050F500E20D0FCD17A9F0C770FF24F3945D
:1042C0008F2D01C0880FCA95EAF70E946017083049
:1042D00048F48D2F877001C0FF0C8A95EAF78F2D67
:1042E0000E946717812F0E94CB17812F0E947117A0
:1042F000083068F6D77081E001C0880FDA95EAF7D8
:104300000E946017C4CFC77081E001C0880FCA95B2
:10431000EAF7F6CFA9E0B0E0E0E9F1E20C948331EE
:104320007C01DC0113968D919C911497892B39F0B7
:104330008C9111969C9189238F3F09F007C529968E
:10434000EDE00C949F310E946E0F182F682F898129
:104350009A810E94E40F69817A81812F0E942E0D3B
:104360008C0180918A02882309F473C00D301105F5
:1043700061F00F30110581F10B301105C1F5F70126
:104380008281882391F183ED05C0F7018281882322
:10439000F9F081ED0E94CB170E94510C60938B02C3
:1043A00070938C0280938D0290938E02809109020B
:1043B000877029F2D70112968C91882309F4BFCF18
:1043C0008091BD0282FFBBCF82E00E945C12B7CF1A
:1043D00081ED0E947117EACFD70112968C91882344
:1043E00011F082EDD7CF82EDF4CF83EDF2CF0C3216
:1043F000F2E41F0709F4C7C0083223E4120709F4E6
:10440000C2C0003E110509F4BEC0C801825E910918
:10441000029740F1053D38E3130709F4B4C0043DA9
:1044200082E3180709F4AFC00A32110509F4ABC0E2
:104430000A3494E4190709F4A6C00D34A3E41A075A
:1044400009F4A1C00E30B4E41B0709F49CC010921B
:104450008A020115EEE71E0781F00130FEE71F0713
:1044600009F449C0F801E851FC47E730F10508F0CC
:104470008AC0ED5EFA4C0C94B531D70112968C913E
:10448000882309F493CF2DEC3CEC4CEC5DE3609178
:104490004701709148018091490190914A010E9421
:1044A000FE316B018C0120E030E040E450E46E838B
:1044B000DF82888719876E817F81888599850E9430
:1044C000573318165CF0A601B8014093470150938A
:1044D00048016093490170934A0168CF80E090E001
:1044E000A0E4B0E48093470190934801A093490170
:1044F000B0934A015BCFF7018281882309F456CF3C
:104500002DEC3CEC4CEC5DE360914701709148016F
:104510008091490190914A010E94FD316B018C010B
:104520002DEC3CEC4CEC5DE36E83DF8288871987D1
:104530006E817F81888599850E946A3287FFC3CF0B
:104540008DEC9CECACECBDE3CDCF26E241EE61EE10
:10455000C7010E942B212ACF27E245EE65EEF8CF56
:1045600026E241EE60EEF4CF27E245EE64EEF0CFB6
:1045700026E241EE62EEECCF27E245EE66EEE8CFB2
:1045800028E241E0EBCFD70112969C91992309F4E0
:1045900004C41092F602980130572332310508F016
:1045A000E7C384E090E00E94C3319093BD02809302
:1045B000BC02F801E150F047E232F10520F4E65E7A
:1045C000FA4C0C94B5318091BC0281608093BC029E
:1045D0006091BC027091BD0284E090E00E94E731DE
:1045E0000E946414E3CE8091BD0288608093BD0276
:1045F000EFCF8091BC028260E9CF8091BC028460E1
:10460000E5CF8091BC028860E1CF8091BD028160DE
:10461000EDCF8091BD028260E9CF8091BC028061C4
:10462000D5CF8091BC028062D1CF8091BC028064E2
:10463000CDCF0E9464148091BC028068C7CF809166
:10464000BC028C60C3CF8091BD028360CFCF8091CC
:10465000BC028E7FBBCF8091BD02877FC7CF809188
:10466000BC028D7FB3CF8091BC028B7FAFCF809196
:10467000BC02877FABCF8091BD028E7FB7CF809188
:10468000BD028D7FB3CF8091BC028F7E9FCF809182
:10469000BC028F7D9BCF8091BC028F7B97CF0E9405
:1046A00064148091BC028F7791CF8091BC02837F8C
:1046B0008DCF8091BD028C7F99CF8091BC0282FB0F
:1046C000992790F921E0922790FB82F990FB83F9DA
:1046D0007DCF8091BD02982F909591708E7F892B10
:1046E00090FB81F983CF9091BC02892F8F7B96FF3D
:1046F00080646CCF0E9464149091BC02892F97FB58
:1047000087F9805863CF61E08EE090E00E94C93164
:104710005FCF60E0F9CF9091BC02892F8F7E94FF2C
:10472000806154CF9091BC02892F8E7F90FF816071
:104730004DCF9091BD02892F877F93FF886056CF20
:1047400085E326C385E333C30F3EB2E51B0760F460
:10475000003EE2E51E0778F0802F8F70992309F460
:104760006EC00E94CA1107C098012F5E32452F31DA
:10477000310508F46BC0D70112968C918823A9F0FB
:104780000A35BCE71B0709F4C1C008F075C0013049
:10479000FCE71F0709F4B8C003302CE7120709F43F
:1047A000ADC001151C4709F47AC0F7018281C080B1
:1047B000D180882309F4AEC0C6010E946E0F182F65
:1047C000682FC6010E94E40FB601812F0E942E0DB2
:1047D0000E944A0D8C01782ED70112969C90129758
:1047E00015968C9082942FE0822280910902877026
:1047F000C1F0A92C9920B1F0812F807F803421F065
:1048000080E2800F883068F08091BD0282FF09C08D
:1048100082E00E945C12809109028770AA24A3940E
:104820008111A12C812F82958F70C82ED12C8C30B4
:1048300008F0DCC0F601E45CFA4C0C94B5319091C0
:10484000EF02891398CF0E94BE1195CF911193CF9B
:1048500081E1800F8F709091EE0289130AC010924F
:10486000EE029091EE028091EF02981709F483CF47
:10487000EACF8093EE02F5CF0B358CE7180709F4E9
:1048800047C00C351C4709F090CF8091BD0282FBD8
:10489000882780F991E089270E94F51D86CF0E9424
:1048A0006414AFEFB4E3ECE0A150B040E040E1F7B6
:1048B00000C0000081E08093E00080E28093D80097
:1048C0001092C9008FE19EE40197F1F700C000004B
:1048D00087E090EBDC018093180390931903A09379
:1048E0001A03B0931B0388E19CE00FB6F894A895D7
:1048F000809360000FBE90936000FFCF6FEF7FEF5B
:1049000090E080E00E94E7310E94351781E0C4CF3B
:1049100080E0C2CFC6010E94B10F182F55CFB12F32
:10492000BF70BB2E107F19F0B29490EFB922802F88
:104930009920B9F0BB2069F090E2900F983010F008
:10494000011109C080912B02B82AB0922B020E945B
:104950000F14802F49C080912A02B82AB0922A02EF
:10496000F6CF0E947117BB2009F440C0005E0830EA
:1049700010F0711004C08B2D0E94DC0E06C0B094A4
:1049800080912A02B822B0922A020E940F142EC0EF
:10499000E12FEF70BE2E107F103219F0B29480EF2D
:1049A000B822772089F0F1E07F1609F47FC09920C2
:1049B00009F489C0882009F47FC0F701858180FF50
:1049C000C8CF8F70858378C02091BD0222FD46C07C
:1049D0009920F1F1BB2039F080912B02B82AB092D6
:1049E0002B020E940F1480E00E94CB1738E0C31AFC
:1049F000D10884E0C816D10410F40E941C11AA202A
:104A0000B1F08091090280FD12C0D70112961C926C
:104A10008595859585950E947812C7010E948A2107
:104A2000809109028595859585950E944A1285E0B9
:104A3000F701DE01119601900D928A95E1F7098147
:104A40001A81C8010E94B10FB8010E942E0D77CCC7
:104A500080E00E947117BB2049F28DCF9920A1F010
:104A600090912C028B2D892B811003C00E94671717
:104A7000BDCF31E08312FACF22FFB8CF891709F4F6
:104A8000B5CF80932C02B2CF811006C00E94D60E03
:104A90008B2D0E946017AACF81E0881609F4A6CF5B
:104AA0008B2D0E9460170E94D60EA0CF992031F066
:104AB00095E0981508F49ACF8B2DD8CFA4E0A815CF
:104AC00008F494CFE5CF882019F3093349F4FFEFB8
:104AD00027EE33E0F15020403040E1F700C0000005
:104AE000802F0E94711782CF812F869586958370C3
:104AF00061F0813009F07ACFC8019370911002C043
:104B000080E090E00E946E0C71CFC801937091100C
:104B100002C080E090E00E94940C68CF692D802F45
:104B20000E94F81363CF912F937009F040C0911049
:104B30005DCF402F429546954770440F440F802F1C
:104B40008F7090E0042E02C0880F991F0A94E2F73C
:104B500030E020E004FF09C02FE030E002C0220F67
:104B6000331F4A95E2F720953095169516951370E8
:104B70001230A1F0133079F0409164025091650237
:104B8000113039F0822B932B842395230E941A1025
:104B90002DCF842B952B822B932BF8CF822B932B0D
:104BA000209164023091650282279327EFCF96957A
:104BB000992011F0912F9170992309F417CF402F6C
:104BC000429546954770440F440F802F8F7090E0B8
:104BD000042E02C0880F991F0A94E2F730E020E00B
:104BE00004FF09C02FE030E002C0220F331F4A95B6
:104BF000E2F7209530951695169513701230A1F0B6
:104C0000133079F04091660250916702113039F00B
:104C1000822B932B842395230E944312E7CE842B6F
:104C2000952B822B932BF8CF822B932B209166020E
:104C30003091670282279327EFCF1F70992029F0C8
:104C4000812F0E947812802F11CF802F0E94601731
:104C5000812F0E944A12CACE802F92EF791699F1C5
:104C6000971570F0A0EF7A16D1F0B1EF7B1691F0A6
:104C7000992009F45BC081106CCE812F8F7127C001
:104C8000E3EF7E1639F1F4EF7F12F2CF8091BD028F
:104C900082FD2EC0812F8F719920D9F218C09920E2
:104CA00069F024E0281508F4A1CE1F7181E090E09E
:104CB00002C0880F991F1A95E2F7B8CF35E0381572
:104CC00008F494CEF2CF812F8F719110C2CF0E9441
:104CD00078128CCE90E080E0992009F49DCF1F716E
:104CE00081E090E002C0880F991F1A95E2F794CFF7
:104CF000992089F01F71812F0E9478128091BD0246
:104D000082FF07C0A8E01A9FC0011124836080932E
:104D10000902812FDCCF81E00E945C12B1E0B8155E
:104D200008F064CE82E00E945C1260CE882059F0C8
:104D3000893309F0D5CEEFEFF7EE23E0E150F040F4
:104D40002040E1F7CBCE812F8F7183CF85E0F70133
:104D5000DE01119601900D928A95E1F7F70122810B
:104D600089819A812111EFCA0E94B10F182FF3CACD
:104D70000631FCE71F0709F0E7CC80912B028A7A05
:104D800091E009F490E09093B0018111D9CC89E2CF
:104D90000E94110F0E940F1409CB06312CE7120755
:104DA00009F0D2CC8091B0018111CCCC89E20E9473
:104DB000E40EF0CF1F93CF93DF938091D601807FD5
:104DC00009F049C08091D301882309F444C080913F
:104DD0000802D091D7016091D1017091D201A091C8
:104DE000D401B091D501C62FC72316E0D81799F189
:104DF00090E0109711F0CF3F19F401968770F6CF2D
:104E0000189F9001199F300D1124F901E852FE4FAF
:104E100041814713F2CF40814613EFCF42814111C8
:104E2000ECCF438154814A1B5B0B483C510528F76A
:104E30008091D6018F7080618093D601F901E35291
:104E4000FE4F80818F708061808381ED91E00E94B0
:104E50008A210E94640FDF91CF911F910895ABE0EA
:104E6000B0E0E5E3F7E20C9484318C0185E0F801D1
:104E7000DE01179601900D928A95E1F7D8011296FE
:104E8000EC90129781ED882E81E0982E4091D4010C
:104E90005091D5014115510509F41BC19091D101E3
:104EA0002091D201822F89238F3F09F412C1DC9017
:104EB0001196CC9011971396AD90BC901497F090EA
:104EC000D301F501E41BF50BFF2009F4D6C0809156
:104ED000D601382F307FE83CF10508F0BAC0311117
:104EE0007AC0FE2C2C1115C09D1113C0E11011C009
:104EF0008F7080618093D601C4010E948A218091C5
:104F0000D601D80115968C938F2D2B96ECE00C943E
:104F1000A031A114B10429F08D2D8C218F3F09F00F
:104F2000F6C080E080FF14C04E2D6C2D8D2D0E94A8
:104F3000450F882369F081ED91E00E948A2186E087
:104F4000E1EDF1E0DF011D928A95E9F7F12CDCCF6C
:104F5000A114B10429F08D2D8C218F3F09F0D4C00C
:104F600080E0B82FB170BB2E80FF2CC04E2D6C2D71
:104F70008D2D0E94450FA82E811124C0DF82C88686
:104F80008F8198850E94A20F292F22952F70903231
:104F900048F0225F2F70223068F0C8010E948A21F9
:104FA000AB2C0EC09F7011F0882351F0805E8830CA
:104FB00038F0F3CF9F70D1F3F8019581907FB1F76E
:104FC000FA2CA2CFEE2009F49FCF8091D601816008
:104FD0008093D601BBCF2C1112C09D1110C0E110DF
:104FE0000EC015968C93C8010E948A2186E0F801B4
:104FF000A1EDB1E001900D928A95E1F785CFC8014E
:105000000E941F10882309F1EE20F9F08091D6014B
:10501000803270F02091D1013091D2013A832983FE
:105020001B82BD82AC828E83CE0101960E948A21B2
:1050300086E0F801A1EDB1E001900D928A95E1F7CB
:105040000E94DA26FF24F3945FCFC8010E948A21D0
:10505000F9CF332309F46FCF2C11D1CF9D11CFCFCE
:10506000E110CDCFF8018583C8010E948A2186E036
:10507000D4011D928A95E9F747CFE83CF105B8F7CE
:10508000FE2CEE2011F32C1116C09D1114C080913E
:10509000D60180FDABCF982F907F09F4A7CFF80100
:1050A0008583903F09F49FCF982F907F905F8F70FA
:1050B000892B858398CFC8010E941F108111B8CF1A
:1050C0008091D60181608093D601C8010E948A2117
:1050D0001BCFEE2009F4B9CFC8010E941F10F82E93
:1050E000882309F4B2CF86E0F801A1EDB1E0019088
:1050F0000D928A95E1F78091D1019091D2010E94A1
:10510000A20F0E94DA2600CF81E08E252ACF81E00F
:105110008E2508CFA7E1B0E0E0E9F8E20C948D31EC
:105120004B8B5C8B6D8B7E8B8F8B611110922A0267
:105130001A8A2C898E899F893B893D872E876F87A4
:10514000998B888B86E0FE013D96DE0117960190D3
:105150000D928A95E1F7CE0107960E942F278823AA
:1051600059F016E0809108029091D701891349C047
:105170006796E3E00C94A93186E0FE013796DE01E4
:10518000119601900D928A95E1F74A855B8541154C
:10519000510539F37F816885862F87238F3F09F377
:1051A0002091D70130E0C901019687709927E091DD
:1051B0000802E817190671F40E9464141092D701CE
:1051C0001092080286E0E1EDF1E0DF011D928A9580
:1051D000E9F7C7CF79836A835D834C8396E0929F1A
:1051E000D001939FB00D1124A852BE4FFE013196FD
:1051F00001900D929A95E1F78093D7010E94640F78
:10520000B0CF819FC001112488529E4F0E942F274A
:10521000882309F4ADCF8091080290E00196877051
:105220009927809308029ECFA1E3B0E0EAE1F9E27A
:105230000C947E31198E188EFE017A9688E0DF017B
:105240001D928A95E9F702E811E0E8E8EE2EE1E028
:10525000FE2EBB24B394CC24C394D12CF8018191AD
:105260008F018F3F09F44AC0F894E82FE295EF7060
:10527000F0E021A18F70A60102C0440F551F8A954E
:10528000E2F7CA01922F982B91A392A180958923CE
:1052900082A3789400C078E8872E71E0972EDE0113
:1052A00058966B2D6095F40191914F018D919D0160
:1052B000215031099F3F09F4C9C0492F42954F70D1
:1052C00050E0FA0140A150E09F7002C0559547950B
:1052D0009A95E2F740FDBAC08B29F9018083FDE879
:1052E0008F16F1E09F06F9F6F801319780818F3F24
:1052F00011F00E94D20C20EA2A95F1F7BB0CE016BF
:10530000F10609F0ABCF4AE050E0BE01685E7F4F86
:1053100088E592E00E94F1347C01892B49F08AE013
:10532000FE017896A8E5B2E001900D928A95E1F72A
:105330000091630210E006591D4F10923102D09087
:105340003002DD2009F4E0C10E941F219C01809100
:105350002E0290912F02A901481B590B30932F0266
:1053600020932E024F3F510511F008F071C04115F6
:10537000510509F466C04CA78091560290915702DE
:1053800099AB88AB1092300210922D0230E020E0F1
:10539000212CC12C312C66246394712CE8A9F9A925
:1053A00070E060E05801A20EB31EC901885A9D4FFB
:1053B0002C01CF013196DC019C90892CE89480F877
:1053C000882049F1892C8694B92DB1709B2E8416C2
:1053D000150611F00CF03FC0DC019C9290FC43C01C
:1053E000D5019C90D2018C90C301062E01C0880F7C
:1053F0000A94EAF78822809589218829992D98278F
:105400008C2C912C892ACC24C3948114910409F406
:10541000C12CD5018C936F5F7F4F6630710549F6C3
:10542000E8A9F9A93696F9ABE8AB2F5F3F4F2530D5
:10543000310509F0B3CF30923002C0923102209290
:105440002D02E114F10409F06FC161C1862345CF3B
:105450004FEF50E090CFBCA58B1A880C9828DC0148
:105460009C923D2CD8CF2D2CD6CF332029F070FC28
:1054700003C0172D11701C9301968630910509F019
:1054800079C14A5F5F4F8E169F0609F061C1509245
:10549000300260923102C09031020E94F910D82E81
:1054A000E0916302882309F481C01A8219829E0167
:1054B0002D5F3F4F83E0D9011D928A95E9F70E2FAA
:1054C00010E006591D4F809151028A30D0F544EA10
:1054D0005FE1BE016F5F7F4FC8010E94C01088234B
:1054E00009F453C042E85EE1BE016F5F7F4FC8011F
:1054F0000E94C010882309F448C041E55FE1BE0165
:105500006F5F7F4FC8010E94C0108823F1F1109295
:1055100051028091620290E045E050E0BE016F5F71
:105520007F4F86599D4F0E94F13421E020933C0229
:10553000892BF1F4D12C8D2D8C29E196E2E10C948C
:105540009A3180913202909133020E941021843F5F
:10555000914008F0BCCF80913C02882359F385E04C
:10556000FE013196DF011D928A95E9F710923C0207
:10557000A0916202B0E0A659BD4F85E0FE013196D0
:1055800001900D928A95E1F7D6CF809151028F3F1D
:1055900031F08F5F809351028A3008F4BACF0E94B5
:1055A0001F219093330280933202D5CFF0E0E65969
:1055B000FD4F85E0AEEFB2E001900D928A95E1F7E4
:1055C00065E070E08EEF92E00E94BA0C8093FD02DD
:1055D0008090030390900403A0900503B09006030D
:1055E0008091380290913902A0913A02B0913B0229
:1055F00088169906AA06BB06F1F0809238029092AE
:105600003902A0923A02B0923B020E94F910811135
:1056100012C00E94510C6CA77DA78EA79FA7861A67
:10562000970AA80AB90A8092520290925302A09255
:105630005402B09255020E94F910882309F47BCFDE
:1056400040913402509135026091360270913702D8
:105650002FB7F8948091B8029091B902A091BA0244
:10566000B091BB022FBF481759076A077B0709F49F
:1056700062CF0E94510C6093340270933502809384
:105680003602909337020E94B5119C018DE0E7E04D
:10569000F3E0DE01119601900D928A95E1F78C8579
:1056A0009D85009729F02817390711F00E94851170
:1056B0008AE0B82EFE013E96DF012B2D1D922A9521
:1056C000E9F7EE84FF84088919892A893B894C8986
:1056D0005D896E897F89CE0182960E948812FE01C3
:1056E000B296DE01129601900D92BA94E1F76AE04B
:1056F00070E0CE0102960E94BA0C89838DE0FE0113
:105700003196A7E0B3E03CCFE114F10439F4809185
:105710002D02882309F4BFCED11006C00E941F219C
:1057200090932F0280932E0240915602509157027F
:105730005090300260903102A8E5B2E0BDA7ACA75E
:10574000F8014801B5E08B0E911CAA24A394B12C5A
:10575000ACA5BDA54D90BDA7ACA7819148269A01E7
:1057600090E080E06D01B1E0CB1AD1087F0161E0EB
:10577000E61AF108B9018501082E02C0000F111FB9
:105780000A94E2F72F5F3F4FDB017C90372CE894BF
:1057900030F8242C202209F468CE31106DCED601C9
:1057A0005C90502277247394511001C0712CB72D56
:1057B000BA607B2EDB017C92B90161507109DB017B
:1057C0006C9160FF06C0D7016C9106270C9366248C
:1057D00063945524539450CE1F921FB61F921124E8
:1057E0008F939F93AF93BF938091B702811113C0A2
:1057F0008091B8029091B902A091BA02B091BB0217
:105800004196A11DB11D8093B8029093B902A09357
:10581000BA02B093BB02BF91AF919F918F911F903D
:105820001FBE1F90189500D000D00F92CDB7DEB7E5
:1058300085B7806885BF85B7806885BF84B7877F57
:1058400084BF0FB6F894A89580916000886180931A
:105850006000109260000FBE80E890E00FB6F894F0
:1058600080936100909361000FBE80ED9CE0909367
:105870008F0180938E010E94F80A0E94990B8091FB
:10588000E20084608093E20078948091E3028823B0
:10589000A1F01091E9001F709091EC00892F8170A8
:1058A00090FD80E8182B1092E9008091E80083FDBC
:1058B0000E9484141F701093E90082E084BD93E07D
:1058C00095BD9AEF97BD80936E0010925202109290
:1058D000530210925402109255020E94F91091E066
:1058E000892780933E010E94F91081110E944D2F5B
:1058F00080913E0180913E0195E0811190E090936E
:10590000630285E0891B8093620202E811E068E887
:10591000E62E61E0F62ED8018D918D018F3F11F0BA
:105920000E94D20CE016F106B1F708E811E0F80188
:1059300081918F018F3F11F00E94D20CF1E00D3860
:105940001F07A9F78AE0EAE6F2E0DF01282F1D929F
:105950002A95E9F7E8E5F2E0DF011D928A95E9F77B
:105960008EE190E00E94C9339C019093570280938E
:10597000560290E080E0F901E80FF91F46E05081FF
:10598000517051934150D9F706968E31910599F790
:1059900090E080E00E94C331873E9E4F09F45EC0D4
:1059A00067EE7EEF90E080E00E94E73160E082E009
:1059B00090E00E94C93160E083E090E00E94C9312C
:1059C000109265021092640260E074E184E090E05D
:1059D0000E94E73160E086E090E00E94C9316FEFFD
:1059E00087E090E00E94C93140E050E0BA0188E0D1
:1059F00090E00E94DB3160E08DE090E00E94C931D0
:105A000040E050E0BA0188E190E00E94DB3160E0C4
:105A100087E190E00E94C93140E050E0BA018CE19A
:105A200090E00E94DB3170E060E080E290E00E9454
:105A3000E73140E050E0BA0188E190E00E94DB31BC
:105A400040E050E0BA018FE090E00E94DB3140E09E
:105A500050E0BA0183E190E00E94DB3182E090E007
:105A60000E94BB318093740284E090E00E94C331B5
:105A70009093BD028093BC0283E090E00E94BB3112
:105A800090E00E941A1080916602909167020E9435
:105A9000D6110E94F910811103C082E30E94B73031
:105AA0000E94F91081110E9412138FE391E09093EC
:105AB000B4028093B30208E110E030E4C32E44E75F
:105AC000E42E42E0F42E50E1752E8091E30222E1B3
:105AD000D22E853009F483C00E94142985E7A82EB0
