:100000000C94DF0A0C94170B0C94170B0C94170B21
:100010000C94170B0C94170B0C94170B0C94170BD8
:100020000C94170B0C94170B0C944D1F0C94091F78
:100030000C94302B0C94170B0C94170B0C94170B7F
:100040000C94170B0C94170B0C94170B0C94170BA8
:100050000C94170B0C9425200C94170B0C94170B75
:100060000C94170B0C94170B0C94170B0C94170B88
:100070000C94170B0C94170B0C94170B0C94170B78
:100080000C94170B0C94170B0C94170B0C94170B68
:100090000C94C1310C94170B0C94170B0C94170B88
:1000A0000C94170B0C94170B0C94170B05010902F9
:1000B000A10185020901A1000509190129081500FE
:1000C00025019508750181029502750881010501D8
:1000D0000930093116018026FF7F950275108106CF
:1000E00009381581257F950175088106050C0A38A8
:1000F000021581257F950175088106C0C00501099B
:1001000080A101850319012AB700150126B70095C2
:100110000175108100C0050C0901A10185041901B8
:100120002AA002150126A002950175108100C005C4
:10013000010906A1018506050719E029E715002533
:10014000019508750181020507190029EF150025A1
:100150000195F075018102050819012905950575BC
:10016000019102950175039101C00660FF0961A12B
:10017000010962150026FF009520750881020963B8
:10018000150026FF00952075089102C0050109069B
:10019000A101050719E029E715002501950875015A
:1001A00081029501750881010507190029FF1500D5
:1001B00026FF009506750881000508190129059597
:1001C0000575019102950175039101C0167C14001B
:1001D0001A000800150017002B0004001600070085
:1001E00009000A004C001D001B0006001900050054
:1001F0000000000026022702E3002C42000000005D
:100200004A444D43E000E2001C0018000C001200BC
:1002100013002D000B000D000E440F00332234009C
:1002200011001045364637003800310000002843E1
:100230001E022D0200000000D538D4322A00000032
:1002400000000000010001000100010001000100A8
:100250000100010001000100010001000100010096
:100260000100010001000100000000002F0030002B
:10027000010201000000000001000100E402E602AA
:10028000010001000100010001000100D300D102C2
:10029000D200010001000100010001000100010085
:1002A0000100010000002800010001000000000022
:1002B00001000100010000000000000039001402EC
:1002C0001A020802150217022B0204021602070284
:1002D00009020A02E3021D021B02060219020502BC
:1002E000000000002F0230020102010000000000A7
:1002F00001000100010201021C0218020C0212029C
:1003000013022D020B020D020E020F023302340201
:1003100011021002360237023802310200000102D7
:100320001E022E0200000000010201000102000076
:10033000000000001F0220022102220224022F00DE
:100340003A003B003C003D003E0045003F004000BD
:100350004100420043004400000000004500460008
:100360000100010000000000010001000100010087
:1003700030005F0060006100220223022E005C005A
:100380005D005E0057002502350259005A005B00EF
:1003900056005400000001006200630000000000ED
:1003A0000100010001000000000000003D04B40055
:1003B00049005200150117041A011601500051009E
:1003C0004F0009041D137A007B007C007D00171389
:1003D0000000000017011A010100010000000000E8
:1003E00001000100010001001C21017EA600007E29
:1003F000AC000000D3000D000100D200AE00AD0043
:10040000B30001000100A800AB00000000000100E3
:10041000A600007C000000000100E500E7000000ED
:1004200000000000000000000000000000000000CC
:1004300000000000000000000000000000000000BC
:1004400000000000000000000000000000000000AC
:10045000000000000000000000000000000000009C
:10046000000000000000000000000000000000008C
:10047000000000000000000000000100000000007B
:10048000000000000000000000000000000000006C
:10049000000000000000000000000000000000005C
:1004A000000000000000000000000000000000004C
:1004B000000000000000000000000000000000003C
:1004C000000000000000000000000000000000002C
:1004D000000000000000000000000000000000001C
:1004E000000000000000000000000000000000000C
:1004F00000000000010000000000000000000000FB
:1005000000000000000000000000000000000000EB
:100510000000000001048E966E773EFE7E5F1DB8DF
:10052000F2664EFF5D19B0C20469542AD62EBFDDB3
:1005300019B0C3E529B1E023A5A9B1C10082674C78
:100540001A978D795120C7068E7C7C7A764FFD599B
:1005500030E2460E9EBEDF1D9991A0A5A1A9D02232
:10056000C6EF5C1B958990A2A7CCFB5528B3E44A43
:10057000F76C3BF46A562EDE1F9DB8D3058892A611
:10058000CE1EBEDF1D99B0E246EF5C07115D980BF1
:100590009D9497EE4E45336B44C729562730C6A726
:1005A000D5F256DFB43862CBA0B6E30F840624053B
:1005B000656F7689B577412782666582CCD5E6205E
:1005C000D52717C5F803237C5F64A51DC1D636CB9C
:1005D0004CD4DB66D78BB1997E6F4C364006D6EB98
:1005E000D7A2E4F495515A5496D55344D78CE0B928
:1005F0004068D218E9DD9A239248EE7F43AFEA774C
:1006000038848C0A72AF69F8DDF12483A3F84ABFFD
:10061000F59413DBBBD8B4B3A0FB4550603059123E
:100620003171A2D313E7FAE7CE0F63150B6B94BBBE
:10063000378326059DFB4692FC0A15D10D7392D691
:100640008C1B8CB8558ACEBDFE8EFCED09128391B1
:1006500082513123FBB40C76AD7CD9B44BB2671414
:10066000099C7F0C18BA3BD68E142AE41B529F2B90
:100670007DE1FB6A3302FAAC5AF23E887EAED1F3DA
:1006800078E805D1E3DC21F6E19ABD170ED9469B47
:100690008803EAF666BE0E1B5049964097F1F1E4D6
:1006A00080A66EE87734BF294044C2FF4E98D39CA1
:1006B000A3322B76510409E7A9D1A632B12353E224
:1006C00047ABD6F5695C3E5FFAAE4520E5D244FF04
:1006D00039326DFD27575CFDF0DEC1B599E5F51C9B
:1006E000770175C56D5892F2B247000126967A30AF
:1006F000FFB7F0EF77C18A5DDCC0D129301E7738B3
:100700007A94F1B87A7EEFA4D1AC314AF25D643DBF
:10071000B2E2F00899FC70EE24A77EEE1E20697DFF
:1007200044BF8742DF883B0CDA42C904F94550FCDC
:10073000838F116A72BC9995F0AC3DA73BCD1CE24A
:10074000887937115F3989950A16847AF68AA42840
:10075000E4ED83803BB123A50310F466EABB0C0FE4
:10076000C5EC6C69C5D324ABD42AB799887608A0A8
:10077000A8957CD8386DCD5902514BF1B52B50E37B
:10078000B6BDD072CF9EFD6EBB44C8248A77188A4E
:100790001306EF977DFA81F031E6FA77ED310631F5
:1007A0005B548A9F3068DBE240F84E73FAAB748B7F
:1007B000105813DCD2E678D1322E8A9F2C58064886
:1007C00027C5A95E8147894621910370A43E889C74
:1007D000DA330ACEBC8B8ECF9FD3718043CF6BA907
:1007E0005183763082C56A853911501A82DC1E1C0D
:1007F000D57DA9719933471997B35AB1DFEDA4F2AA
:10080000E62684A2289A9EDFA66AF4D6FC2E5B9D7B
:100810001A2A2768FBC183214B90E036DD5B314209
:1008200055A013F7D089537199570929C5F321F8B9
:10083000372F40F3D4AF16083602FC77C58B0490EF
:1008400056B9C9679A99E800D386FF972D08E9B78A
:10085000B391BCDF45C6ED0F8C4C1EE65B6E3830A5
:10086000E4AAE395DEB9E49AF5B2559A879BF66A55
:10087000B2F2779A31F47A31D11D04C07C32A29E53
:100880009AF562F8278DBF51FFD3DF64373F2A6F97
:10089000763A7D77069E777F5EEB3251F916669A3F
:1008A00009F3B008A470964630FFDA4FE91BED8DCE
:1008B000F8741F3192B3731736DB9130D688556BBD
:1008C0003477877AE7EE06C61C8C190C4846235EFF
:1008D0009C075CBFB47ED64F749CE2C5508BC58B21
:1008E000159060625729D01343A18088910044C7B6
:1008F0004D1986CC2F2A755AFCEB972A70E378D8CD
:1009000091B04F9907A395EA2421D5DE5120932772
:100910000A3073A8FF8A97E9A76A8E0DE8F0DFEC2A
:10092000EAB46C1D392A622D3D5A8B65F890052E6C
:100930007E912C78EF8E7AC12FAC78EEAF284506E9
:100940004C26AF3BA2DBA39306B53CA5D8EE8FAFF8
:1009500025CC3F856848A962CC978F7F2AEAE015AD
:100960000AAD6207BD45F841D836CB4CDB6EE63A9E
:10097000E7DA15E9291E1210A0142C0E3DF4BF3938
:100980004192750B257BA3CE399C1564C8FA3DEFC7
:100990007327FE262ECEDA6EFD718EDDFE76EEDC3E
:1009A000125C02C53A4E4E4FBFCA4015C76E8D410C
:1009B000F110E04F7E977F1CAE478E6BB12531B0B2
:1009C00073C71B9779F980D366223007741EE4D071
:1009D0008021D6EE6B6C4FBFF5B7D909872FA914CC
:1009E000BE27D9725001D41373A6A751027525E111
:1009F000B345347DA88EEBF31649CB4F8CA1B936A5
:100A00008539755D0800AEEBF6EAD7133A215A5FD7
:100A10003084522695C914F257556BB110C2E1BD0E
:100A20003B51C0B7554C711226C70DF951A438027D
:100A3000057FB8F1724BBF718914F37738D97124EF
:100A4000F30011A1D8D46927083735C9119D901C2E
:100A50000EE71CFF2D1EE892E11810957CE080F453
:100A6000964321F975216438DD9F1E9516DA561DCF
:100A70004F9A53B2E2E418CB6B1A65EB56C63BE5CE
:100A8000FED8263F3A84597266A2F375FFFB60B325
:100A900022AD3F2D6BF9EBEA057CD88F6D2C989E2B
:100AA0002B93F15E46F08749297368D77FF9F0E50B
:100AB0007DDB1D7519F3C4589B1788A892E0BEBD55
:100AC0008B1D8D9F5676ADAF29E2D9D552F6B5561E
:100AD00035573AC8E156431994D3049B6D35D80B6A
:100AE0005F4D198EECFA64910A72202BBC1A4AFEF3
:100AF0008BFDBBED1B23EAAD7282A1299971BDF07C
:100B000095C103DD7BC2B23C2854D368A472C86689
:100B100096E0D1D87FF8D1262BF7ADBA55CA15B9D2
:100B200032C3E588978E5CFB92258BBFA245557A30
:100B3000A76F8B575BCF0ECB1DFB208277A88CCC89
:100B400016CE1DFADECC0B62FECCE1B7F0C3816499
:100B50007340A0C24D8911753355338DE84AFDEAC3
:100B60006E300BD7312CDE47E3BFF85542E27F5998
:100B7000E517EF99346991B1238E20872DA8FED512
:100B80008AF3843AF037E4090054EE674993E4812C
:100B900070E3904DEFFE41B7997BC183BA62126F4B
:100BA0007DDE6BAFDA16F95551EEA60C2B02A3FDD4
:100BB0008DFB3017E46FDF3671C4CA872548B04714
:100BC000ECEAB4BFA54D9B9F0293C4E3E4E8422D39
:100BD0006881150AEB845BD6A874FB7D1DCB2CDAEB
:100BE000462A7662CEBC5C9E8BE7CFBE78F57CEB66
:100BF000B33A9CAA6FCC72D159F21123D63F48D197
:100C0000B7CEB0BFCBEA80DE57D45E972F75D150F8
:100C10008E802C6679BF724BBD8A816CD3E101DC7A
:100C2000D21526C536DA2C1AC02794EDB79B850B52
:100C30005E8097C5EC4FEC885D50073547DC0B3B79
:100C40003DDD60AFA85D813824255D5C15D1DEB344
:100C5000ABEC0569EF83ED5754B864641116326943
:100C6000DA9F2D7F36BB445A34E87FBF03EB007F09
:100C700059682279CF736C2C29A7A15F38A11DF088
:100C80002053E01A6314587110AA080C3E161A601B
:100C900022827FBAA443A0D0AC1BD56B64B5149359
:100CA000319E5350D05766EE5A4FFB032A6958764F
:100CB000F183F74EBA8C4206605D6DCE6088AEA4BB
:100CC000C3F103A54B98A1FF67E1ACA2B862D76F4F
:100CD000A031B4D277AF211006C69AFF1D09170EB6
:100CE0005FF1AA54344B458A8763A6DCF924306748
:100CF000C6B2D6613369EE50615728E77EEEEC3A12
:100D00005A734EA88DE418EAEC4164C8E2E866B66E
:100D10002DB6FB6A6C16B3DD4643B973006A71EDFC
:100D20004E9D251AC33C4A95159935811402D698D3
:100D30009BECD8233B8429AF0C9983A69A344FFAB5
:100D4000E8D03C4BD0FBB668B89E8FCDF7602D7ACB
:100D500022E57DAB651B95A7A87FB677477B5F8BA8
:100D60001272D0D491EFDE19503CA78BC4A9B323E3
:100D7000CB76E681F0C1048FA3B8545B97AC19FF22
:100D80003F55272FE01D429B57FC4B4E0FCE98A995
:100D9000435703BDE7C894DF6E367332B4EF2E8538
:100DA0007A6EFC6C188275359007F3E49F3EDC6820
:100DB000F3B5F31980920699A2E86FFF2E7FAE4239
:100DC000A45FFBD40E812BC304FF2BB3744E365BA0
:100DD0009C1500C6472BE88B3DF19C039A587F9BDE
:100DE0009CBF854979352E567B411439478326AA05
:100DF000078998111B86E7737AD87D786153E97962
:100E0000F5368D449284F91350583BA46A366549EF
:100E10008E3C0EF16FD284C47E8E3F39AE7C84F15D
:100E200063378E3CCC3E448145F14BB9ED6B365D6A
:100E3000BB20601A0FA3AA55773AA9AE374DBAB8AE
:100E4000866BBC0850F6CCA4BD1D4072A586FAE2A4
:100E500010AE3D584B97F34374A99EEB21B701A404
:100E6000869397EE2F4F3B86A1416F412690785C89
:100E70007F30384B3FAAECED5C6F0EAD4387FD939E
:100E800035E601EF412690999EFB195BADD2918A20
:100E9000E046AF65FA4F84C1A12DCF458BD3855075
:100EA000557CF96788D44EE9D76B6154A1A4A6A2FA
:100EB000C2BF309C409F5FD7692B24825ED9D6A7E2
:100EC00012541AF7559F7650A99584E66B6DB59626
:100ED00054D6CDB3A19B46A7944DC494B498E3E1F6
:100EE000E234D533160754CDB77753DB4F4D469DCB
:100EF000E9D49C8A36B6B838266C0EFF9C1B438B0F
:100F000080CCB93DDAC7F18AF26DB8D7742F7E1E56
:100F1000B7D34AB4ACFC79486CBC96B69446572D0E
:100F2000B0A3FC1EB95260852D41D043011E1CD5D3
:100F30007DFCF3960DC7CB2A299A93DD882D375D6A
:100F4000AAFB4968A09C50867F685657F9791839E2
:100F5000D4E001843361CAA5D2D6E4C98A4A2344C5
:100F60004EBCF0DC24A1A0C4E2073C10C4B5254B64
:100F70006563F480E7CF61B1718221872CF5910020
:100F8000320CECA9B59A7485E3368F764F9C6DCE02
:100F9000BCAD0A4BED7604CBC3B9339E0193966981
:100FA0007DC5A245799B045C8409ED8843C7AB935A
:100FB0001426A140B5CE4EBF2A42853E2C3B54E8B4
:100FC000121F0E9759B22789FAF2DF8E6859DC0694
:100FD000BCB6850D0622ECB1CBE504E63DB3B041CD
:100FE00073083F3C588663EB50EE1D2C3774A9D331
:100FF00018A3476E9354AD0A5DB82A555D78F6EE96
:10100000BE8E3C7669B940C234EC2AB9ED7E20E44C
:101010008D0038C7E68F44A886CEEB2AE990F14CC4
:10102000DF32FB731B6D921E95FEB4DB65DF4D2333
:10103000548948BF4A2E70D6D762B43329B13A33A7
:101040004C236DA676A5216348E6905DED90950B47
:101050007A84BEB80D5E630C62264C145AB3AC237E
:10106000A474A76F333005600142A028B7EE193889
:10107000F164808243E141271F1F90547AD5232ECB
:10108000D13DCB28BA587FDC7C9124E92851836E6E
:10109000C5562142EDA05622A140806BA8F794CA04
:1010A000136B0C39D9FDE9F36FA69EFC708AB3BCB3
:1010B000593C1E1D6CF97CAFF9887195EB5700BD4A
:1010C0009F8C4FE12483C522EAFDD30CE217187CE4
:1010D0006A4CDE77B4539B4C81CD2360AA0E2573F6
:1010E0009C02793230DF74DF7519F4A5145CF77A4D
:1010F000A8A591847C6003063BCD50B6279CFEB129
:10110000DDCCD3B05924B2CAE21C81229D078F8E58
:10111000B9BE4EFAFC3965BABF9D12375E977EF3B1
:1011200089F55DF5E3098C62B5209D0C538A681B37
:10113000D28F75175DD4E5DA756219146A262DEB26
:10114000F8AF37F06CA455B1BCE233C09ACAB01105
:10115000494F689B3B6B3CCC13F6C785616842AE38
:10116000BBDDCD4516291DEADBC803943CEE4F825A
:1011700011C3EC28BD970599DED7BB5E221FD4EBC7
:1011800064D992D985B76A056AE42441F1CDF0D8D3
:101190003FF89E0ECD0B7A706B5A750A6A3388EC55
:1011A00017750870102F24CFC4E942006194CA1F3C
:1011B0003A7606FAD24881F077600345D961F4A403
:1011C0006F3DD930C3046B542AB7EC3BF44BF56840
:1011D0005226CEFF5D1991A0A3A5A9B1E023C40AB0
:1011E000774DF95120A3A5A9B1C10082868E7F5DFC
:1011F0001991A0A3C4EB540B756852078C9A978D74
:1012000079706246EF5C1B95897141E121A1A1A132
:10121000C002674C1AB6CFFD785324ABB5C9F16054
:1012200023A5C812876D5813858892876D5832C7D9
:101230000C9A97ACDA36EE5E3EDF1DB8F2662FBD33
:10124000F87247ED5813858892878C7B550990A2D8
:10125000C6EF3DF85324ABD42AB7EC5A36EE5E3EC7
:10126000DF3CFA764FFD5930E246EF3DF853056911
:1012700031C10082868E7F5D19B0E227CCFB744BB2
:10128000148B948B756833C50892878C9AB6CF1CE3
:10129000BAD70D98B2E62FDC1B9589716023C40A7A
:1012A000968F9CBAF66E3FFC5B15A8D226AFBDF8B0
:1012B00072662FDC1BB4CB148B94AAB7CDF9510105
:1012C0008082866F3DD930E227CCFB744B14AAB7DD
:1012D000CDF97043046B35C9F16023A5C8F3450807
:1012E00092876D5832E62FBDF872664E1EBEFE7EA6
:1012F0007E7E5F1D9991A0A3C40A774D1893A4AB7D
:10130000D40B754910A2C6EF3DF85324ABB5E833B2
:10131000E44A16AEDE1FBCDB15A8B3C5087345E969
:1013200031C1E121A1A1A1C002866F5C3AD70D981D
:1013300093A4CA16AEDE1F9D99B0E246EF3DF87247
:10134000470C9AB6CFFD5911A0A3A5C8F345089242
:10135000876D39F043048A96AEDE3EDF1D9991A079
:10136000C2066F3DF872470C9A978D9893858873E3
:1013700045E931E023A5A9D003848A96AEDE1FBCDF
:10138000DB15A8D226CEFF5D1991818082672DD80A
:1013900013A4ABD40B94AAB7CDF95120A3A5C8F3DD
:1013A00045E95022C6EF5C3AD70D9893858873645F
:1013B0004AF74DF95120A3C40A96AEDE3EFE7E7E6A
:1013C0007E5F3CFA764FFD7872662FBDD930C3E55B
:1013D0004812878C7B5528D2078C9A97ACDA178DE8
:1013E000795120A3C4EB540B948B94AAD62EBFFC46
:1013F0005B15A8D226AFDC1BB4EA37EC3BF46A37A6
:10140000CD1893856931C1E140E325C812878C9AD4
:10141000B6CFFD5911A0C2068E7F5D38F2470C7B16
:10142000746A37EC5A36EE3FFC7A764F1C9B9589EE
:101430007141006344EB542AD60F9CBAD70D9893A0
:10144000856931C10082868E9EBEDF3CFA572CDA58
:1014500036EE3FFC5B158971410082868E7F5D38D8
:10146000F247ED5813A4CAF74DF95101806344EBDC
:10147000542AD62EBFDD1991A0A3A5A9B1E042063A
:101480008E7F5D1991A0A3C40A968F7D7872470C58
:101490007B746A562EDE1FBCFA570D79510161210B
:1014A000A1C0E325A9B1C1E14002674C1A978D980C
:1014B00093A4ABD42AD60F9C9BB4CB14AAB7CDF976
:1014C0005120A3C4EB35C9F16042068E7F7C7A7649
:1014D0006E3FFC7A766E5E3EFE7E5F3CDB15897168
:1014E00041E121C0E344EB542AB7CDF9706227AD46
:1014F000D832C70C7B744B14AAB7EC3BD528D20763
:101500006D39D120C2E74C1A978D98B2C70C592873
:10151000F39B09025B00030100A0FA09040000012B
:10152000030101000921110100012240000705818A
:101530000308000109040100020300000009211151
:101540000100012222000705820320000107050394
:101550000320000109040200010300000009211119
:1015600001000122BE0007058403200001120100D2
:1015700002000000084D4436340100010200012839
:1015800003440061006300740079006C0020004D8A
:101590000061006E00750066006F0072006D002033
:1015A0000034007800360000000E037400730068F9
:1015B000006F00720074000000040309040011248D
:1015C0001FBECFEFDAE0DEBFCDBF04B603FE18C00A
:1015D0008091340390913503A0913603B091370385
:1015E0008730904BA740B04B59F4109234031092BF
:1015F00035031092360310923703E0E0F8E30995C3
:1016000011E0A0E0B1E0EAE9F9E602C005900D9230
:10161000AA3AB107D9F723E0AAEAB1E001C01D92C6
:10162000A433B207E1F70E94572B0C9480340C943A
:1016300000009C012C3282E4380719F02832334430
:1016400019F486EE90E0089588EC90E00895E8EDB6
:10165000F0E080818E7F80831092E2001092DA00A9
:101660001092E100A0EEB0E08C9181608C938081BB
:101670008F77808319BCA7EDB0E08C918E7F8C931F
:1016800080818F7E80831092DD0208952091E40096
:101690003091E50095E6A9012091EC00822F817040
:1016A00020FF06C08091E80080FF06C080E008951A
:1016B0002091E80022FD1AC080910203882389F05E
:1016C000853089F08091EB0085FD0FC02091E4000A
:1016D0003091E50042175307F9F29150E1F684E0AA
:1016E000089582E0089583E0089581E0089580914F
:1016F000040387FF13C08091E80082FF06C0809139
:10170000E8008B778093E80004C080910203811188
:10171000F2CF0895809102038823D9F38091E800E5
:1017200080FFF8CF8091E8008E77ECCF982F9093D0
:10173000E900242F762F50E0891731F07091EC00EA
:101740002091ED005091F00021FD07C09F5F973080
:1017500071F78093E90081E008953091EB003E7FBE
:101760003093EB003091ED003D7F3093ED003091F0
:10177000EB0031603093EB007093EC002093ED00B0
:101780005093F0002091EE0027FDE0CF80E0089517
:10179000B0E0A0E0EEECFBE00C948C32C8EDD0E0C1
:1017A00088818F7E8883E7EDF0E08081816080838F
:1017B00084E082BF81E08093DD0288818E7F888310
:1017C00002EE10E0F80110821092DA0081EEC82ECD
:1017D000D12CF601108288818F7788838881806878
:1017E000888388818F7D888319BC109202031092B0
:1017F0000303109201031092000390EEE92EF12CE6
:10180000F70180818B7F808388818160888342E0BB
:1018100060E080E00E94960BF60180818E7F8083DD
:10182000F801808181608083808188608083F701F6
:1018300080818E7F8083888180618883CDB7DEB789
:10184000E8E00C94A832FC01CB0120910A0330910E
:101850000B032617370790F0009729F42091E80032
:101860002E772093E80040E0009751F4411108C022
:101870008091E80082FF31C080E00895C901F3CF74
:10188000209102032223A9F12530A9F12091E8003B
:1018900023FD2DC02091E80022FDEACF2091E80031
:1018A00020FFE2CF3091F3002091F200009719F071
:1018B0002830310558F041E02830310509F040E08A
:1018C0002091E8002E772093E800CECF41914093FD
:1018D000F10001972F5F3F4FE9CF809102038823EA
:1018E00041F0853041F08091E80083FFC1CF81E075
:1018F000089582E0089583E008958091DF020895BD
:10190000A4E0B0E0E6E8FCE00C9492328FB7F894E3
:101910002091D7023091D8024091D9025091DA0239
:1019200029833A834B835C838FBF69817A818B8162
:101930009C812496E2E00C94AE32A3E0B0E0E3EAAE
:10194000FCE00C9492329C018091D4029091D502DB
:1019500082179307A1F03093D5022093D402E0912F
:10196000D202F091D302309751F084E089833B8317
:101970002A830680F781E02DCE01019609952396F2
:10198000E2E00C94AE32A3E0B0E0E9ECFCE00C94B1
:1019900092329C018091D0029091D10282179307DC
:1019A000A1F03093D1022093D002E091D202F091C5
:1019B000D302309751F083E089833B832A830680EA
:1019C000F781E02DCE01019609952396E2E00C9473
:1019D000AE32FC01680F791F8FEF91E321918227CE
:1019E00028E030E087FF09C0880F8927215031099E
:1019F000C9F7E617F70791F70895880FF7CF80E04A
:101A00000895F894E82FE295EF70F0E041A18F700F
:101A100021E030E0B90102C0660F771F8A95E2F736
:101A2000CB01962F9095942391A392A1892B82A309
:101A3000789408959091DB0292FF06C0282F2871B8
:101A40002830F9F4877F846093FF06C0282F28711F
:101A50002831F1F4877E84612091DC0220FF06C0EA
:101A6000382F38713830D9F4877F816021FF06C064
:101A7000282F28712831D1F4877E816194FD877EDB
:101A80000895282F24712430F9F68B7F8860DCCFED
:101A9000282F2471243101F78B7E8861DDCF382F08
:101AA0003171313019F78E7F8860E0CF282F217196
:101AB000213121F78E7E8861E1CF7A30B8F466302B
:101AC000A8F4873098F4E62FF0E096E0799FE00DD7
:101AD000F11D11249CE3899FE00DF11D1124EE0FEF
:101AE000FF1FE453FE4F85919491089580E090E0AC
:101AF0000895CF93DF93EC01803E910509F475C002
:101B000088F58133910509F4B2C090F489329105CA
:101B100009F4A2C08A9709F4B1C0C130D10509F413
:101B200077C0CE010497813A910508F06AC070C071
:101B30008933910509F44DC08238910509F449C0F3
:101B40008533910509F483C08D3C910508F01CC1D3
:101B5000883A910508F099C0853A9105F0F2A4976A
:101B6000D06456C0843E910509F461C000F5823E00
:101B7000910509F449C0833E910509F44DC0C11592
:101B800022E5D20708F0A8C0C11530E5D30708F454
:101B90008CC08C2F8F710E941A0D35E0D695C79599
:101BA0003A95E1F7CF70DC2FC82FD06931C0863E5F
:101BB000910509F447C0873E910509F78091DB0242
:101BC00083FD1DC19091DC0291FF2EC0C4EED0E0D8
:101BD0001FC08091DB02837009F00EC18091DC028E
:101BE00083FF16C0C9E2D0E013C08091DB0280FD04
:101BF0003BC09091DC0290FF0BC0C3EED0E084FFAD
:101C000007C0D0E0C0E004C08091DB0282FDF5CFC8
:101C1000CE01DF91CF9108958091DB0282FDE9C072
:101C20009091DC0290FDE8C084FFF2CFEACF809172
:101C3000DC0281FFEDCF8091DB02C7EED0E084FDB6
:101C4000E0CFE6CF8091DB0283FDF7CFE1CF80913B
:101C5000DB0285FFDDCFC6CF8091DB0285FDD2C0E0
:101C60008091DC0283FFD4CFC9E3D0E0D1CF809153
:101C7000DB0286FFCDCFCAE2D0E0CACF8091DB0283
:101C800086FFC6CFC1E3D0E0C3CF885A91094997F8
:101C900008F0B7CFC85AD0E0CC0FDD1FC45ADE4FD2
:101CA0000990D881C02DD464B3CFC11540E4D407C6
:101CB00080F4C11580E2D80708F08EC0C83ED10577
:101CC00008F4A6CFCE019A9581159F4108F4A0CFC4
:101CD00098CFDF70D06A9CCFC03832E5D307B8F513
:101CE000C03642E5D40708F058C0C03482E5D807B2
:101CF000C8F4C03292E5D90708F048C02C2F2695C9
:101D0000269540E2249F900111248C2F8370C1E01E
:101D1000D0E002C0CC0FDD1F8A95E2F7C22BD32B97
:101D2000DD6876CF2C2F26952695277080E2289F98
:101D3000900111248C2F8370C1E0D0E002C0CC0F41
:101D4000DD1F8A95E2F7C22BD32BDC6861CFC03C44
:101D500092E5D90760F48C2F8F71C03AD24590F587
:101D6000C82FD0E0DC2FCC27C46FD06A51CFCE0172
:101D7000805C9245809708F044CFDC2FCC27CC279D
:101D8000DF71C06FD06A44CFD06542CFCF71D0E051
:101D9000DC2FCC27C16FD06A3BCF2C2F2695269500
:101DA000277040E2249F900111248C2F8370C1E0A2
:101DB000D0E002C0CC0FDD1F8A95E2F7C22BD32BF7
:101DC000DA6826CF0E941A0DC82FD0E0DC2FCC276E
:101DD000CC27DF71D0621CCF8D2F8F710E941A0D1E
:101DE00090E0982F882788279F719C012C2BE90170
:101DF000F1CFC2EED0E00CCFC0EED0E009CFC6EEFE
:101E0000D0E006CFC5E3D0E003CF80914802811136
:101E1000109248020895982F909580914702892347
:101E200080934702089590915A019923E1F090918F
:101E3000DB0297FF18C0E82FE695E695E695803F10
:101E4000F0F4F0E0E455FE4F877021E030E0A901A6
:101E500002C0440F551F8A95E2F7CA01809592810E
:101E6000892382830895EEEAF1E09191891303C0FA
:101E7000DF0111971C9251E0E43BF507B1F708959B
:101E800090915A019923C1F09091DB0297FF14C001
:101E9000E82FE695E695E695803FF8F4F0E0E45506
:101EA000FE4F877021E030E001C0220F8A95EAF7EB
:101EB0008281822B82830895AEEAB1E0EFEF90E059
:101EC0002D91821751F0EF3F19F4211101C0E92F34
:101ED0009F5F9630A9F7EF3F09F408950E2E000C8E
:101EE000FF0BE455FE4FE6CFE09124029091F30101
:101EF00056E0E91302C080E008952E2F30E05E9F87
:101F0000F0011124EC50FE4F7181761306C07081F0
:101F1000781303C07281741304C0F9013196E7701D
:101F2000E8CF81E00895452B39F0682381E06F3FC9
:101F300009F080E08170089581E0FCCF8091240257
:101F40009091F301981301C008958F5F8770FACFC5
:101F5000B0E0A0E0EEEAFFE00C948B328C01E09060
:101F60008202F09083028091800290918102E82A9F
:101F7000F92ACFE0D0E0CC24C394D12CBC2EC601EA
:101F80000C2E02C0880F991F0A94E2F78E219F2120
:101F9000892B49F4219790F7B12C8B2DCDB7DEB763
:101FA000E9E00C94A732B8018C2F0E945D0D0E94CD
:101FB000790D019779F3F1CFCF93DF93D82FC92F04
:101FC0000E94A80F6D2F7C2F0E945D0D0E94790D3D
:101FD000DF91CF9108959A3078F5863068F5E82F33
:101FE000F0E086E0989FE00DF11D11249E2F977080
:101FF00083E0F695E7958A95E1F7EE0FFF1FEE0F68
:10200000FF1FE353FE4F50E040E080E0219130E0BD
:10201000092E02C0369527950A94E2F721703327DE
:10202000042E01C0220F0A94EAF7822B4F5F5F4F04
:102030004430510559F7089580E008959A3098F595
:10204000863088F5E82FF0E086E0989FE00DF11DDE
:1020500011248E2F877041E001C0440F8A95EAF762
:1020600083E0F695E7958A95E1F7EE0FFF1FEE0FF7
:10207000FF1FE353FE4F30E020E070E05191DF019D
:102080001197CB01022E02C0969587950A94E2F72C
:10209000817081958527842385278C932F5F3F4FFF
:1020A0002430310559F7089590938102809380027E
:1020B00008950F931F93CF938C01FC0143815481AA
:1020C000618180810E94930FC82F811114C0F80193
:1020D000808191810E94DC0F92959F709630B1F0C3
:1020E00060F4925F9F70923060F4C1E0803F49F0ED
:1020F00030F4883E30F0C0E004C09A5FF3CF843FF4
:10210000D1F78C2FCF911F910F910895C1E0883E98
:10211000C0F3813F81F7F5CFA5E0B0E0E2E9F0E15F
:102120000C9491329C0185E0F901DE011196019039
:102130000D928A95E1F7F901228189819A81222302
:1021400099F0662389F00E94A80F182F682F8981C3
:102150009A810E941E1069817A81812F0E945D0DF3
:102160002596E3E00C94AD320E94EB0F182FF3CFCD
:1021700080E008950F931F93CF93DF938B01EA01C3
:1021800090910203943061F58093E9008FEF909174
:10219000E800815095FD06C095ED9A95F1F7000095
:1021A0008111F5CF8091E80085FF1AC00E94460B8F
:1021B000811111C08091E80085FD06C08091E80082
:1021C0008E778093E800F2CFF80181918F018093A0
:1021D000F100219779F78091E8008E778093E800ED
:1021E000DF91CF911F910F910895BC0143E050E022
:1021F00084E00E94BA100895BC014AE050E084E0F7
:102200000E94BA100895CF93DF93D82FC92F8091E1
:102210005A01811113C048E050E06D2F792F81E001
:102220000E94BA1080E2ED2FFC2FA0EEB2E00190E8
:102230000D928A95E1F7DF91CF9108958091DB02AD
:1022400087FF06C040E284E050E06D2F7C2FE8CF8E
:1022500048E081E0F9CFB0E0A0E0E1E3F1E10C94E7
:102260008A32F82EE92ED62EC72E8A0180916D0271
:10227000AA24A394B12C8A3018F48AE0A82EB12C99
:10228000C1E0D0E06D2D7C2D8F2D9E2DF80109959C
:10229000811104C02196AC16BD062CF4CDB7DEB773
:1022A000EAE00C94A632CC9F9001CD9F300D300D0A
:1022B000112490E080E045E34A95F1F70000019693
:1022C00082179307C1F7DECF80915902811110C0A8
:1022D0008091D80080618093D8008AE18A95F1F7D7
:1022E00000C08091D90080FF0AC081E0809359022C
:1022F00081E090915902913009F080E0089582E0E8
:10230000809359020E94270B10920203F1CF0E9482
:102310006411882359F0E091D202F091D3023097F2
:1023200029F00190F081E02D0995089580E008954D
:10233000CF93DF93D82FC92F0E946411882339F0DF
:102340008D2F9C2F0E94F011DF91CF910895D09393
:10235000CA02C093CB02F8CFCF9328E030E043E02D
:1023600060E087EF0E944B2FC82F811105C00E94AB
:1023700027308C2FCF91089585E08A95F1F70000E2
:10238000F8CFA2E0B0E0E7ECF1E10C948F32182F27
:10239000F62E0E94AC11082F811106C000E0802F9C
:1023A0002296E5E00C94AB32103511F010920C033C
:1023B00010681983FA8262E070E0CE0101960E94F3
:1023C000F72F892B59F78AEB8A95F1F700C00E9405
:1023D000273083E492E00197F1F700C00000DFCFDF
:1023E00064E670E00E946E326150710968377105D1
:1023F00010F067E770E08FE00E94C1110895CF935D
:10240000C82F0E94AC118823C9F08C2F0E94C72FBF
:102410008FE792E00197F1F700C000000E94DF2FE4
:10242000C82F95E09A95F1F700000E94273085E6C5
:102430008A95F1F700008C2FCF910895C0E0FBCF73
:102440008FE00E94FF118F5F24E6829FC00111245C
:102450000895EFE0F3E084E0DF011D928A95E9F74B
:10246000EDE0F3E0808181830895CF93C82F8091C0
:102470000E038C1721F00E942912C0930E03CF91F6
:102480000895CF93DF93D82FC92F292F30E048E04C
:102490002115310519F4282F392F40E0C90164E0D6
:1024A000969587956A95E1F7009711F04C5F9C012E
:1024B000C9019695879596958795009711F04E5F7F
:1024C0009C0136952795232B19F04F5F4530C9F0B5
:1024D000463021F1443089F581E00E94351284E6CE
:1024E00090E00E94981181E08093AB021092B102BB
:1024F0001092AC02109253018D2F9C2FDF91CF913F
:10250000089582E00E9435128CE291E00E949811B9
:1025100081E08093B1021092AB02EACF83E00E9487
:10252000351288EC90E00E94981181E08093AC0213
:102530001092AB021092B102DDCF80E00E94351202
:1025400084E690E00E94981181E0809353011092FC
:10255000B1021092AC021092AB02CECF0E94411297
:102560009093830280938202089521E030E002C0BC
:10257000220F331F8A95E2F72095309580918202D1
:1025800090918302822393230E94AE12089590912A
:1025900025028095892380932502282F277091F4A6
:1025A000282F082E000C330B9217130659F0909128
:1025B000DC0292FF07C08595859585950E94B5122E
:1025C00010922502089521E030E002C0220F331F4F
:1025D0008A95E2F78091820290918302822B932B5D
:1025E0000E94AE120895A6E1B0E0E9EFF2E10C948A
:1025F0008C326C01ED86FE860F87188B298B3A8B07
:102600004B8B5C8B6D8B7E8B8E01095F1F4F86E041
:10261000F80111928A95E9F780910C03811136C077
:1026200060E080E50E94C11181112DC086E0FE01AD
:102630003796DE01119601900D928A95E1F786E0BA
:10264000FE013196DE01179601900D928A95E1F711
:10265000898187FB882780F94B815C812D813E81B0
:102660009F8180FB97F99F8393FF36C08AE0FE012C
:102670003D96D60101900D928A95E1F7C6016696C6
:10268000E8E00C94A83281E080930C030E94AC1126
:10269000882361F280E50E94C72FFAEBFA95F1F7E3
:1026A00000C066E070E0C8010E940F308F81877023
:1026B00011F010920C030E94273089859A8591951C
:1026C000819591099A8789878B859C8591958195BC
:1026D00091099C878B87AACF811103C01092CC02ED
:1026E000C5CF8091CC02811103C081E08093CC02E0
:1026F0005A8B498B3C8B2B8BB9CF0F931F93CF9366
:10270000DF930E94432F0E94AC11882309F488C0F4
:1027100025ED2A95F1F700000E94273085ED8A9576
:10272000F1F700006AE58AE30E94C111882309F4E9
:1027300077C09FEFE0E7F2E09150E040F040E1F732
:1027400000C0000082E00E94FF1183E00E94FF11A0
:1027500084E00E94FF1185E00E94FF1186E00E9444
:10276000FF116DE183E10E94C111882309F458C073
:102770008FE39CE90197F1F700C0000068E183E175
:102780000E94C1110E94AC11882309F449C082EE55
:102790000E94C72F90E59A95F1F7C4E1D5E002E1D8
:1027A00015E1FE0184910E94C72FF0E5FA95F1F73B
:1027B00021960C171D07A9F78FE193E00197F1F718
:1027C00000C000008AE20E94FF1160E080E10E94E8
:1027D000C1110E942730EFE3FCE93197F1F700C007
:1027E000000060E08FE00E94C1118FE99FE0019737
:1027F000F1F700C0000060E080E10E94C11162EECC
:1028000081E10E94C11165E183E60E94C11180E06F
:102810000E94FF118FE30E94FF118AE20E94FF11C4
:10282000DF91CF911F910F9108954AE050E06CE93C
:1028300072E08CEB92E00E946A34892B69F1E0919E
:10284000D202F091D302309739F182E08093BC023A
:102850008091C0029091C1028038910584F5813841
:102860002FEF920714F481E89FEF8093BE028091CE
:10287000C2029091C302803891051CF58138AFEFF8
:102880009A0714F481E89FEF8093BF020480F581DA
:10289000E02D8CEB92E009959091BD028AE0ECEB83
:1028A000F2E0DF01282F1D922A95E9F79093BD02EF
:1028B000ACE9B2E001900D928A95E1F708958FE7B7
:1028C000D4CF8FE7E1CF2FE2280F283078F481E0D2
:1028D00090E001C0880F2A95EAF72091BD02662397
:1028E00031F0822B8093BD020E94151408958095CB
:1028F0008223F8CF8091470290914602892B8093E2
:10290000AC01909148029923A1F0892B8093AC01EE
:1029100080915A018823E1F18091DB0287FF38C062
:102920008EE1EEEAF1E090E08150A0F591110E9475
:10293000050F40E250E066E272E08CEA91E00E940E
:102940006A34892B21F180E2ECEAF1E0A6E2B2E000
:1029500001900D928A95E1F7E091D202F091D302B5
:102960003097A9F080915A01882359F08091DB02B9
:1029700087FF07C08091AC018093AD0186E0809312
:10298000AC010280F381E02D8CEA91E00995089575
:1029900086E0C7CF2191222339F29F5FC5CF1092E5
:1029A000470280915A01EEEAF1E08823B1F080916C
:1029B000DB0287FF12C08EE1DF011D928A95E9F7E5
:1029C00090E080E00E94C30C90E080E00E949D0CAB
:1029D000109246020E947A14089586E0EDCFAAE292
:1029E000B0E0E5EFF4E10C94913284E093E0FC0177
:1029F00001962091F100208323E08C309207B9F7F3
:102A000080910503893009F456C0C8F4823009F476
:102A1000B3C0833009F482C0813071F18091E80045
:102A200083FF85C280910403909105039A3008F0DA
:102A30007EC2E92FF0E0EE57FB4C0C94B9328A309D
:102A400009F489C08B3051F780910403813231F74A
:102A50008091080390910903892B01F78091E80088
:102A6000877F8093E8000E94770B80910603809314
:102A70005A010E94CF14D2CF80910403813A71F69B
:102A80008091E800877F8093E8008091080390910F
:102A90000903892B61F460E280EE92E070E00E940D
:102AA000230C8091E8008B778093E800B7CF60E03B
:102AB00090E080E0F3CF80910403813209F0AECF43
:102AC00080910803909109038D7F892B09F0A6CF8F
:102AD0008091E800877F8093E8008091E80082FF82
:102AE00018C09091F3008091F200029731F4809128
:102AF000F100813011F0863021F48091F100809353
:102B0000DF028091E8008B778093E8000E94770BCA
:102B100085CF809102038111E0CF80CF80910403A3
:102B2000813A09F07BCF8091080390910903892BAA
:102B300009F074CF8091E800877F8093E80080914E
:102B4000E80080FFFCCF80915A018093F1008091D2
:102B5000E8008E77D9CF80910403813209F05ECFEF
:102B60008091E800877F8093E8000E94770B809136
:102B700007038093DE0252CF80910403813A09F06B
:102B80004DCF8091E800877F8093E8008091E80036
:102B900080FFFCCF8091DE02D8CF803899F0823858
:102BA00009F0C5C1809108038F70873008F0BFC15C
:102BB0008093E9008091EB0085FB882780F91092D3
:102BC000E90006C080910003909101039111826099
:102BD0009091E800977F9093E8008093F100109225
:102BE000F1008091E8008E779EC1882309F48CC1A2
:102BF000823009F09CC18091060381118FC18091C0
:102C000008038F702FEF280F263008F090C18093B3
:102C1000E9002091EB0020FF81C1933031F48091D5
:102C2000EB0080628093EB0079C19091EB009061A2
:102C30009093EB0021E030E001C0220F8A95EAF783
:102C40002093EA001092EA008091EB008860EACFBE
:102C500081116DC1109106031F778091E300807888
:102C6000812B8093E3008091E800877F8093E800C8
:102C70000E94770B8091E80080FFFCCF8091E300F9
:102C800080688093E30082E0111183E08093020367
:102C90004EC18058823008F04AC1409106035091DD
:102CA00007034C3D83E05807A1F583E08A838AE25D
:102CB00089834FB7F894DE01139620E03EE051E29D
:102CC000E32FF0E050935700E49120FF03C0E2951A
:102CD000EF703F5FEF708E2F90E0EA30C0F0C79644
:102CE0008D939D932F5F243159F74FBF8091E8005A
:102CF000877F8093E8006AE270E0CE0101960E942F
:102D0000230C8091E8008B778093E80010C1C09677
:102D1000E7CF8091080390910903252F33272330B3
:102D2000310509F44AC078F52130310509F479C03C
:102D30008BE590E0E2E1F5E12230310509F0F7C0E2
:102D40002091E800277F2093E80020910A0330912A
:102D50000B038217930708F49C0140E0211531050D
:102D600009F064C0411162C08091E80082FDC9CFC2
:102D700080910203882329F2853019F28091E800BE
:102D800083FFF2CFBECF2132310509F43BC022329E
:102D9000310509F0CCC08330910508F0C8C0FC01B2
:102DA000EE0FFF1FE256FE4F0190F081E02D855699
:102DB0009E4FDC018C9190E011C0CA0199274130EF
:102DC00089F082309105B1F0892B09F0B0C0E9EBB0
:102DD000F5E1E4918E2F90E0E9EBF5E1009709F43D
:102DE000A6C0AECFE9EAF5E1E4918E2F90E0E9EAE2
:102DF000F5E1F4CFEFE7F5E1E4918E2F90E0EFE716
:102E0000F5E1ECCF8330910508F091C0880F991F50
:102E1000FC01EC55FE4F0190F081E02D89E090E03F
:102E20008FCF82E190E0EDE6F5E18ACF8091020359
:102E3000882309F466CF853009F463CF8091E800D8
:102E400083FD5FCF8091E80082FD8ECF8091E80006
:102E500080FF84CF9091F3008091F200211531051D
:102E600019F08830910550F041E0089709F040E0F2
:102E70008091E8008E778093E80070CF4491409372
:102E8000F1003196215031090196E8CF803809F0E0
:102E90004EC08091E800877F8093E8008091030313
:102EA0008093F1009ECE811142C010910603123032
:102EB000F0F58091E800877F8093E800109303038A
:102EC0000E94770B112311F084E005C08091E3008C
:102ED00087FDFACF81E08093020342E061EC81E05C
:102EE0000E94960B42E261EC84E00E94960B42E263
:102EF00061EC82E00E94960B42E260EC83E00E946B
:102F0000960B8091020313C080910603813079F4FF
:102F100081E0933009F080E0809301031092E90092
:102F20008091E800877F8093E8000E94770B809172
:102F3000E80083FF0AC08091E800877F8093E80063
:102F40008091EB0080628093EB00AA96E3E00C9402
:102F5000AD320E94CF142FEF84E39CE021508040DB
:102F60009040E1F700C0000088E19CE00FB6F894C3
:102F7000A895809360000FBE90936000FFCF8823D8
:102F800041F08095909146028923809346020E94E9
:102F90007A140895882339F090914602892B809302
:102FA00046020E947A140895882321F00E940B0F94
:102FB0000E947A140895882339F090914702892B52
:102FC000809347020E947A140895882309F456C01A
:102FD000823879F40E94871181FF50C089E30E94F2
:102FE000400F0E947A1489E30E94130F0E947A1402
:102FF0000895833859F40E94871180FF3FC083E50C
:103000000E94400F0E947A1483E5EECF843859F471
:103010000E94871182FF32C087E40E94400F0E9405
:103020007A1487E4E1CF9CEF980F913AE8F290E2AE
:10303000980F983050F4877091E001C0990F8A95ED
:10304000EAF7892F0E940B0FD1CF9BE5980F9330A1
:1030500028F490E080E00E94C30C089598E5980F52
:10306000993128F490E080E00E949D0C089593E34C
:10307000980F933118F460E00E9463140895CF9381
:10308000C82F8823C9F08238C9F40E94871181FDB6
:1030900013C089E30E94400F0E947A142FEF37EE8D
:1030A00083E0215030408040E1F700C0000089E318
:1030B0000E94130F0E947A14CF9108958338A1F4CF
:1030C0000E94871180FDF8CF83E50E94400F0E9487
:1030D0007A149FEF21EE34E0915020403040E1F728
:1030E00000C0000083E5E4CF8438A1F40E9487117A
:1030F00082FDE2CF87E40E94400F0E947A148FEF96
:1031000091EE24E0815090402040E1F700C00000A3
:1031100087E4CECF8CEF8C0F813A88F580915A01ED
:10312000882301F18091DB0287FF1CC0EC2FE6951C
:10313000E695E695F0E0E455FE4F828190E04C2F55
:10314000477021E030E002C0220F331F4A95E2F7BA
:1031500082239323892B79F08C2F0E94130F0E94D6
:103160007A1409C0EEEAF1E08191C817A9F331E0C1
:10317000E43BF307C9F78C2F0E94400F9BCF80E2FE
:103180008C0F883068F4C77021E030E001C0220F56
:10319000CA95EAF780914702822B809347028ACF33
:1031A0008BE58C0F833038F42C2F2452330BC9015C
:1031B0000E94C30C81CFE8E5EC0FE93150F4F0E058
:1031C000EE0FFF1FE45AFE4F808191810E949D0CFB
:1031D00073CF83E38C0F833108F06ECF61E08C2FC7
:1031E0000E94631469CFCF93DF93EC010097B9F489
:1031F00090E080E00E94B8100E94DB178C2F0E94A4
:103200003F188C2F0E94E517209771F490E080E022
:103210000E94B8100E94D417DF91CF9108950E94A8
:10322000B8100E94CA17EACFCE010E94B8100E94BF
:10323000BF17F2CFB0E0A0E0E0E2F9E10C948832F1
:10324000B82EA92EF62EE72ED42EC52E922E832E22
:10325000A0910F03B0911003ED01B7FF04C0CC277C
:10326000DD27CA1BDB0BE0911103F0911203AF01C4
:10327000F7FF04C0442755274E1B5F0B4C175D0713
:10328000BCF595E0D695C7959A95E1F710E000E07A
:10329000919714F50C171D0711F18B2D9A2D0E9493
:1032A000F31880910F039091100380969093100370
:1032B00080930F030F5F1F4FEDCF892D982D0E9434
:1032C000F31880910F03909110038097909310034F
:1032D00080930F030F5F1F4F0C171D0771F710929C
:1032E000120310921103CDB7DEB7ECE00C94A432B8
:1032F000EA0185E0D695C7958A95E1F710E000E0F0
:10330000B19714F5C017D10711F18F2D9E2D0E9492
:10331000F3188091110390911203809690931203F9
:10332000809311030F5F1F4FEDCF8D2D9C2D0E94B9
:10333000F3188091110390911203809790931203D8
:10334000809311030F5F1F4FC017D10771F71092C1
:10335000100310920F03C7CFA4E4B0E0E2EBF9E151
:103360000C9482320E946411882309F475C2409142
:10337000C6025091C7026091C8027091C9022FB76E
:10338000F8948091D7029091D802A091D902B0917F
:10339000DA022FBF481759076A077B0709F45CC296
:1033A0000E94800C6093C6027093C7028093C8028B
:1033B0009093C9020E946411882309F4F6C0E0903A
:1033C000BC02F090BD020091BE021091BF0220919C
:1033D000C0023091C1024091C2025091C30260917B
:1033E000C4027091C502CE01C3960E94F3128AE016
:1033F000FE01F396ACEBB2E001900D928A95E1F7F5
:103400008AE0ECEBF2E0DE011B9601900D928A95CA
:10341000E1F7C090C002D090C102002711270C191B
:103420001D09188B0F878AE0FE013B96DE0111967D
:1034300001900D928A95E1F71E830D838AE0FE01CB
:103440003196ACEBB2E001900D928A95E1F78AE0FB
:10345000ECEBF2E0DE01559601900D928A95E1F7D2
:103460008AE0FE017596DE01119601900D928A9513
:10347000E1F7EB8DFC8D8091B102882309F49CC0AB
:10348000A601D7FCA8019F01F7FF04C0222733271C
:103490002E1B3F0B4901032E000CAA08BB08E0902D
:1034A0005801F0905901D7010E94BF32BB2797FD08
:1034B000BA95A92F982F872F2A01052E000C660890
:1034C000770884159505A605B7050CF472C0970119
:1034D000DA010E94BF32BB2797FDBA95A92F982F1A
:1034E000872FAF0188159905AA05BB0514F410E0D4
:1034F00000E0009F9001019F300D300D1124A0913C
:103500005601B09157010E94BF32872E982EA92EE6
:10351000BB24A7FCBA94D80117FF04C0AA27BB2775
:10352000A01BB10B2CE431E00E94D632BB2797FDE3
:10353000BA95A92F982F872F7401E80EF91E449F82
:103540009001459F300D300D1124A0915401B09190
:1035500055010E94BF3221966CAF7DAF8EAF9FAFF9
:103560002197BB2797FDBA95A92F982F872F4A013E
:1035700057FF04C088249924841A950A092C000C4A
:10358000AA08BB08880D991D101611061CF0F194AD
:10359000E194F108F092B002E092AF021416150621
:1035A000B4F091958195910912C08AE0E2EBF2E0C6
:1035B00021CF50E040E09DCF8091AC02882361F0A4
:1035C0001093B0020093AF02CF01880F991F909320
:1035D000AE028093AD0208C08091AB02811144C05D
:1035E000909153019111D6C0E090AF02F090B002DB
:1035F000A090AD02B090AE02EC29FD29EF2B09F4AA
:10360000D4C00E94800C6093A7027093A80280939C
:10361000A9029093AA0281E08093A6020091A702DA
:103620001091A8022091A9023091AA024FB7F894F4
:103630008091D7029091D802A091D902B091DA027C
:103640004FBF409147015091480170E060E0801BFE
:10365000910BA20BB30B481759076A077B0708F0B9
:10366000A8C01092A602A5C0A601D7FCA8019F0180
:10367000F7FF04C0222733272E1B3F0BF12CE12C30
:10368000241735071CF07F0110E000E0A80117FFA8
:1036900004C044275527401B510B1701F7FE04C0F7
:1036A000222433242E183F08882309F475C0A090E3
:1036B0005101B090520180904D0190904E01A09127
:1036C0004901B0914A0129E930E00E94D632472EE3
:1036D000582E692E772467FC7A94009F9001019FF1
:1036E000300D300D1124D5010E94BF32BB2797FD4C
:1036F000BA95A92F982F872F21968CAF9DAFAEAF8B
:10370000BFAF2197DA01A30192010E94DD32BB27EE
:1037100097FDBA95A92F982F872FADACBEACA80EF8
:10372000B91EEE9C9001EF9C300D300D1124D40198
:103730000E94BF32272F382F492F552747FD5A9512
:1037400021962CAF3DAF4EAF5FAF2197D101A301C2
:1037500092010E94DD3225966CAF7DAF8EAF9FAF98
:103760002597BB2797FDBA95A92F982F872F4DAD89
:103770005EAD840F951F101611061CF0B194A19434
:10378000B108B092B002A092AF021E141F040CF454
:103790001ECF07CF7F017ACFA0904F01B09050018C
:1037A00080904B0190904C018ACF8091A6028111AC
:1037B00035CFFE82ED82B886AF828AE0FE01319677
:1037C000DE011B9601900D928A95E1F7F88AEF864B
:1037D000BA8AA98A8AE0FE013B96ACEBB2E001907E
:1037E0000D928A95E1F78AE0ECEBF2E0DE01999622
:1037F00001900D928A95E1F72091C0023091C102AB
:103800008091C2029091C3020091C4021091C5023E
:1038100040910E03411125C03EA72DA798AB8FA75D
:1038200009AB1AAB4AE0FE01B996DE011196019090
:103830000D924A95E1F73E832D8398878F83098700
:103840001A878AE0FE013196ACEBB2E001900D924E
:103850008A95E1F70E941514CC5BDF4FE2E10C94EE
:103860009E3245E0EEE0F3E0DE01559601900D92C8
:103870004A95E1F760910F03709110034091110395
:10388000509112033EA72DA798AB8FA709AB1AAB97
:103890008AE0FE01B996DE01119601900D928A959B
:1038A000E1F7E60EF71E4A195B09FF8AEE8A598F87
:1038B000488F25E0FE017596DE011B9601900D9262
:1038C0002A95E1F7FD86EC865F874E8785E0FE014D
:1038D0003B96AEE0B3E001900D928A95E1F71E822F
:1038E0001D8218861F8209871A878AE0FE01319699
:1038F000DE01999601900D928A95E1F740910E03B1
:1039000020910F03309110038091110390911203C5
:103910001EA61DA618AA1FA609AB1AAB5AE0FE01E7
:10392000B996DE015F9601900D925A95E1F742300B
:1039300009F480C0433009F488C0413059F5B90119
:1039400037FF02C0615F7F4FE4E075956795EA95A8
:10395000E1F7162FAC0197FF02C0415F5F4F74E0A3
:10396000559547957A95E1F7042F51E050930E0352
:10397000A0E16A0220193109112430931003209329
:103980000F03B0E14B0280199109112490931203A7
:10399000809311031CA21BA21EA21DA20FA318A795
:1039A0008AE0FE017F96DE011B9601900D928A95BA
:1039B000E1F7188A1F861A8A198A0B8B1C8B8AE0FA
:1039C000FE013B96DE01119601900D928A95E1F77A
:1039D0001E821D8218861F8209871A878AE0FE01CF
:1039E0003196DE01559601900D928A95E1F71A8E77
:1039F000198E1C8E1B8E0D8F1E8F8AE0FE01759610
:103A0000DE01999601900D928A95E1F71EA61DA6FA
:103A100018AA1FA609AB1AAB8AE0FE01B996DE010F
:103A2000119601900D928A95E1F790E080E030E0E8
:103A300020E001CF2FE430E042E550E061E570E0A6
:103A400080E590E00E941A19A5CF30E020E049EA15
:103A500050E06AEA70E090E080E0F4CF9091DC0200
:103A600092FB222720F9281779F080FB92F9909396
:103A7000DC026091DB027091DC0284E090E00E9445
:103A80003C3382E00E94C7120895B0E0A0E0EBE46E
:103A9000FDE10C948532582EFA015901680198E035
:103AA0008902E0011124EF2B61F4FE01EA5FFE4F71
:103AB00086819781892B51F5C114D104D9F581E014
:103AC00020C0DE01AA5FBE4FEC90F12C4E155F05C1
:103AD00008F47A01FE01EA5FFE4F81809280C40102
:103AE000885E9C4F3C01A7010E94773404E610E0F9
:103AF0009701A301682D82E30E94413197FFD5CF42
:103B000080E0CDB7DEB7EFE00C94A13250921803FD
:103B100060910701709108012091060130E0AB012E
:103B2000485E5C4F04E610E082E30E94413197FF5B
:103B3000C3CFE6CFFE01EA5FFE4FE380F12CCE1447
:103B4000DF0408F47601CA5FDE4F6C817D81AB0132
:103B5000485E5C4F04E610E0970182E30E946C31FE
:103B600097FDCECF6C817D81685E7C4FA701C5013A
:103B70000E947734A4CFA8E0B0E0E1ECFDE10C9422
:103B8000903240916302509164026091650270919D
:103B900066022FB7F8948091D7029091D802A09135
:103BA000D902B091DA022FBF841B950BA60BB70B7D
:103BB00011E084369105A105B10550F10E94641110
:103BC000882359F10E94800C462F572FBC014E5F6D
:103BD0005F4F6F4F7F4F49835A836B837C8310E025
:103BE00000E030E020E044E050E0BE016F5F7F4F36
:103BF00083E00E94451D182F882351F00E94800CFD
:103C000060936302709364028093650290936602EE
:103C1000812F2896E4E00C94AC320E94800C6D83D6
:103C20007E838F83988740916E0250916F026091DE
:103C30007002709171028D819E81AF81B885480FAD
:103C4000591F6A1F7B1FC3CFA1E0B0E0EAE2FEE18B
:103C50000C948632662E4A01722EA32EB02EC12EEF
:103C600001E010E09E012F5F3F4F50E040E070E028
:103C700060E00E94451DD82E882309F443C0D4017A
:103C80004D915D916D917C912FB7F8948091D70201
:103C90009091D802A091D902B091DA022FBF841B73
:103CA000950BA60BB70B84369105A105B10540F421
:103CB000B7018B2D9C2D0E94E90C9981891711F178
:103CC0008701272D3A2D50E040E070E060E0862D1E
:103CD0000E94451DD82EB7018B2D9C2D0E94E90C0A
:103CE00091E02981281390E0D92239F00E94800CBC
:103CF000F40160837183828393838D2D2196EEE09E
:103D00000C94A232A7016B2D7C2D872D9A2D0E9439
:103D10007734F3CFA4E1B0E0E0E9FEE10C948E3219
:103D20000E946411811145C08AE0E82EF12C04E262
:103D300013E09E01255F3F4F49E652E065E084E0D5
:103D40000E94241E882391F09AE0FE013B96DE013A
:103D5000119601900D929A95E1F79AE0FE01319645
:103D6000A2EBB2E001900D929A95E1F7E090CA02C1
:103D7000F090CB02E114F104E1F020916702309160
:103D800068022E153F05A9F0F0922F03E0922E0352
:103D900010E000E030E020E042E050E06EE273E04E
:103DA00086E00E94451D882321F0F0926802E0928F
:103DB00067026496E6E00C94AA32A5E0B0E0E3EE78
:103DC000FEE10C948C326B0185E0E82EF12C0AE1C7
:103DD00013E09E012F5F3F4F4FE552E062E081E02C
:103DE0000E94241E882349F095E0FE013196AAE541
:103DF000B2E001900D929A95E1F795E0EAE5F2E0E4
:103E0000D60101900D929A95E1F72596E8E00C9481
:103E1000A8321F920F920FB60F9211242F933F9347
:103E20004F935F936F937F938F939F93AF93BF93C2
:103E3000CF93DF93EF93FF93D091E900DF708091F0
:103E4000EC00C82FC17080FDC0E81092E90080919D
:103E5000F000877F8093F00078940E94EF14109216
:103E6000E9008091F00088608093F000CD2BCF7046
:103E7000C093E900FF91EF91DF91CF91BF91AF9196
:103E80009F918F917F916F915F914F913F912F9172
:103E90000F900FBE0F901F9018951F920F920FB6A4
:103EA0000F9211242F933F934F935F936F937F93C0
:103EB0008F939F93AF93BF93EF93FF938091E10014
:103EC00082FF09C08091E20082FF05C08091E1007D
:103ED0008B7F8093E1008091DA0080FF24C0809185
:103EE000D80080FF20C08091DA008E7F8093DA00B6
:103EF0008091D90080FF9BC080E189BD82E189BDAE
:103F000009B400FEFDCF81E0809302038091DD02C1
:103F1000811109C00E94270B0E94C80B8091E2000A
:103F200084608093E2008091E10080FF17C080915F
:103F3000E20080FF13C08091E2008E7F8093E20058
:103F40008091E20080618093E2008091D8008062DD
:103F50008093D80019BC85E0809302038091E10032
:103F600084FF29C08091E20084FF25C080E189BDE3
:103F700082E189BD09B400FEFDCF8091D8008F7D1C
:103F80008093D8008091E1008F7E8093E100809142
:103F9000E2008F7E8093E2008091E2008160809356
:103FA000E20080910303882309F447C084E08093F2
:103FB0000203809102038091E10083FF27C080917A
:103FC000E20083FF23C08091E100877F8093E100BE
:103FD00082E080930203109203038091E1008E7FC0
:103FE0008093E1008091E2008E7F8093E2008091D7
:103FF000E20080618093E20042E060E080E00E94A5
:10400000960B8091F00088608093F000FF91EF9113
:10401000BF91AF919F918F917F916F915F914F91E0
:104020003F912F910F900FBE0F901F90189519BCC4
:10403000109202031092DD0276CF8091E30087FD9B
:1040400002C081E0B4CF83E0B2CF78941F921FB654
:104050001F9211248F939F93AF93BF938091D702A8
:104060009091D802A091D902B091DA020196A11DD7
:10407000B11D8093D7029093D802A093D902B09338
:10408000DA02BF91AF919F918F911F901FBE1F9039
:1040900018959C014FB7F8948091D7029091D8025F
:1040A000A091D902B091DA024FBF821B930B089501
:1040B0002FB7F8948091D7029091D802A091D9029D
:1040C000B091DA022FBF0895B0E0A0E0EAE6F0E296
:1040D0000C948C32D62E172FC42FC22EFC01828155
:1040E0008823A9F04093CF020E9458209093CE02DB
:1040F0008093CD02C77081E001C0880FCA95EAF7AE
:104100000E94DB17CDB7DEB7E8E00C94A832D0915F
:10411000CF02D41338C08091CD029091CE020E947C
:1041200049207C018D2D912F0E94190BE816F9066C
:1041300050F5C0E2CC0DDC15A1F0D77011E0812F55
:1041400001C0880FDA95EAF70E94D417C83048F406
:104150008C2D877001C0110F8A95EAF7812F0E947C
:10416000DB17802F0E943F18802F0E94E517C83070
:1041700048F62C2D277081E001C0880F2A95EAF7B8
:104180000E94D417BFCFC77081E001C0880FCA95C5
:10419000EAF7F6CFB0E0A0E0E0EDF0E20C9489326F
:1041A0007C01DC0113964D915C91149711966C91F2
:1041B00011978C910E94930F982E81117EC061E01F
:1041C000C7010E948C10EC018091A602882309F49B
:1041D0003FC0CD30D10509F44FC0CF30D10509F42F
:1041E00071C083EDCB30D10509F447C0CC32F2E485
:1041F000DF0709F4BEC0C83223E4D20709F4B9C00E
:10420000C03ED10509F4B5C0CE01825E9109029786
:1042100040F1C53D38E3D30709F4ABC0C43D82E3A8
:10422000D80709F4A6C0CA32D10509F4A2C0CA341D
:1042300094E4D90709F49DC0CD34A3E4DA0709F466
:1042400098C0CE30B4E4DB0709F493C01092A60204
:10425000C115EEE7DE07D9F1C130FEE7DF0709F44B
:104260004CC0FE01E851FC47E730F10508F081C081
:10427000E457FB4C0C94B93281EDF70192819923FC
:1042800019F10E943F180E94800C6093A70270935E
:10429000A8028093A9029093AA02809125028770B8
:1042A00061F0D70112968C91882339F08091DC025D
:1042B00082FF03C082E00E94C712CDB7DEB7EBE0F9
:1042C0000C94A53282EDD9CF0E94E517E6CFD70135
:1042D00012968C91882309F38091490190914A01AB
:1042E00049968130B3E09B072CF490934A01809368
:1042F0004901D3CF80E093E0F8CFF7018281882392
:1043000061F28091490190914A0149978931910563
:1043100064F789E190E0E9CF06E221EE41EE6AE13F
:104320007CE7C7010E946420B8CF07E225EE45EE86
:104330006BE17CE7F6CF06E221EE40EE68E17CE738
:10434000F0CF07E225EE44EE69E17CE7EACF06E232
:1043500021EE42EE6CE17CE7E4CF07E225EE46EE8B
:104360006DE17CE7DECF08E221E045EE6EE17CE71F
:10437000D8CFD70112969C91992309F4DFC31092EC
:10438000CF029E0130572332310508F0C2C384E0CA
:1043900090E00E9408339093DC028093DB02FE01E0
:1043A000E150F047E232F10520F4ED56FB4C0C945D
:1043B000B9328091DB0281608093DB026091DB0285
:1043C0007091DC0284E090E00E943C330E94CF14A4
:1043D00064CF8091DC0288608093DC02EFCF809113
:1043E000DB028260E9CF8091DB028460E5CF8091BF
:1043F000DB028860E1CF8091DC028160EDCF8091AB
:10440000DC028260E9CF8091DB028061D5CF8091B0
:10441000DB028062D1CF8091DB028064CDCF0E942D
:10442000CF148091DB028068C7CF8091DB028C6063
:10443000C3CF8091DC028360CFCF8091DB028E7F7F
:10444000BBCF8091DC02877FC7CF8091DB028D7F5D
:10445000B3CF8091DB028B7FAFCF8091DB02877F70
:10446000ABCF8091DC028E7FB7CF8091DC028D7F55
:10447000B3CF8091DB028F7E9FCF8091DB028F7D57
:104480009BCF8091DB028F7B97CF0E94CF148091CE
:10449000DB028F7791CF8091DB02837F8DCF80917C
:1044A000DC028C7F99CF8091DB0282FB992790F907
:1044B00021E0922790FB82F990FB83F97DCF8091D8
:1044C000DC02982F909591708E7F892B90FB81F95B
:1044D00083CF9091DB02892F8F7B96FF80646CCF16
:1044E0000E94CF149091DB02892F97FB87F98058A7
:1044F00063CF61E08EE090E00E941E335FCF60E00A
:10450000F9CF9091DB02892F8F7E94FF806154CF89
:104510009091DB02892F8E7F90FF81604DCF90912B
:10452000DC02892F877F93FF886056CF85E301C324
:1045300085E30EC3CF3EB2E5DB0760F4C03EE2E5A3
:10454000DE0778F08C2F8F70992309F46EC00E94DB
:10455000351207C09E012F5E32452F31310508F418
:104560006BC0D70112968C918823A9F0CA35BCE79D
:10457000DB0709F4C1C008F075C0C130FCE7DF07F4
:1045800009F4B8C0C3302CE7D20709F4ADC0C11597
:10459000DC4709F47AC0F7018281C080D18088238A
:1045A00009F4AEC0C6010E94A80FC82F682FC6012B
:1045B0000E941E10B6018C2F0E945D0D0E94790D85
:1045C000D82FC92F082FD7011296BC901297159695
:1045D000AC90A2948FE0A822809125028770C1F050
:1045E000BB20A9F0892F807F803421F080E28D0FDD
:1045F000883070F08091DC0282FF0AC082E00E9465
:10460000C712809125028770992493948111912C6F
:104610008C2F82958F70C82ED12C8C3008F0DAC088
:10462000F601EB54FB4C0C94B93290910E038913B4
:1046300098CF0E94291295CF911193CF8C2F8F5E26
:104640008F7090910D0389130AC010920D03909101
:104650000D0380910E03981709F483CFEACF80935E
:104660000D03F5CFCB358CE7D80709F447C0CC351F
:10467000DC4709F090CF8091DC0282FB882780F92B
:1046800091E089270E942E1D86CF0E94CF14AFEFA4
:10469000B4E3ECE0A150B040E040E1F700C000001E
:1046A00081E08093E00080E28093D8001092C900FE
:1046B0008FE19EE40197F1F700C0000087E090EBE6
:1046C000DC018093340390933503A0933603B093B9
:1046D000370388E19CE00FB6F894A89580936000BA
:1046E0000FBE90936000FFCF6FEF7FEF90E080E010
:1046F0000E943C330E94A91781E0C4CF80E0C2CF62
:10470000C6010E94EB0FC82F55CF1C2F1F70C07F12
:1047100011F01295107F8D2FBB20B9F0112369F095
:1047200090E29D0F983010F0D11109C0809147029E
:10473000182B109347020E947A148D2F49C0809144
:104740004602182B10934602F6CF0E94E51711235C
:1047500009F440C0D05ED83010F0011104C0812FA0
:104760000E940B0F06C010958091460218231093EB
:1047700046020E947A142EC01C2F1F70C07FC032C8
:1047800011F01295107F002399F0013009F475C0E3
:10479000BB2009F47FC0AA2009F475C0D701159683
:1047A0008C91159780FFC9CF8F7015968C936BC035
:1047B0002091DC0222FD3AC0BB2091F1112339F097
:1047C00080914702182B109347020E947A1480E0D0
:1047D0000E943F1838E0C31AD10884E0C816D104FB
:1047E00010F40E9487119920B1F08091250280FD7C
:1047F00012C0D70112961C928595859585950E94C9
:10480000E312C7010E94CA208091250285958595F3
:1048100085950E94B51260E0C7010E948C104DCDB5
:1048200080E00E94E5171123A9F299CFBB2099F0EF
:1048300090914802812F892BA11003C00E94DB17A1
:10484000C9CFB1E0AB12FACF22FFC4CF891711F262
:1048500080934802BFCFA11006C00E94050F812F90
:104860000E94D417B7CFE1E0AE1609F4B3CF812F81
:104870000E94D4170E94050FADCFBB2031F0F5E0A8
:10488000FA1508F4A7CF812FD9CF24E02A1508F410
:10489000A1CFE5CFAA2019F3D93349F4BFEFE7EE52
:1048A000F3E0B150E040F040E1F700C000008D2F90
:1048B0000E94E5178FCF8C2F86958695837069F0BF
:1048C000813009F087CF8D2F9C2F9370B11002C0DB
:1048D00080E090E00E949D0C7DCF8D2F9C2F9370E7
:1048E000B11002C080E090E00E94C30C73CF6B2D2A
:1048F0008D2F0E9463146ECF8C2F837009F040C0FF
:10490000B11068CF4D2F429546954770440F440F24
:104910002D2F2F7030E0042E02C0220F331F0A9477
:10492000E2F790E080E0D4FF09C08FE090E002C0A1
:10493000880F991F4A95E2F780959095C695C69580
:10494000C370C230A1F0C33079F040918002509121
:104950008102C13039F0822B932B842395230E944E
:10496000541038CF242B352B822B932BF8CF822B4E
:10497000932B209180023091810282279327EFCFE1
:104980008695BB2011F08C2F8170882309F422CFEB
:104990004D2F429546954770440F440F2D2F2F7091
:1049A00030E0042E02C0220F331F0A94E2F790E099
:1049B00080E0D4FF09C08FE090E002C0880F991F0B
:1049C0004A95E2F780959095C695C695C370C2301A
:1049D000A1F0C33079F04091820250918302C1303E
:1049E00039F0822B932B842395230E94AE12F2CEB2
:1049F000242B352B822B932BF8CF822B932B2091BA
:104A000082023091830282279327EFCFCF70BB20A1
:104A100029F08C2F0E94E3128D2F10CF8D2F0E9432
:104A2000D4178C2F0E94B512D5CE8D2F023F71F175
:104A300060F4003FB9F0013F81F0BB2009F459C098
:104A4000A1107BCE8C2F8F7125C0033F31F1043F25
:104A5000A1F78091DC0282FD2EC08C2F8F71BB20CC
:104A600009F318C0BB2069F024E02A1508F4B2CE7F
:104A7000CF7181E090E002C0880F991FCA95E2F7DC
:104A8000BECF35E03A1508F4A5CEF2CF8C2F8F714A
:104A9000B110C8CF0E94E3129DCE90E080E0BB2011
:104AA00009F4A3CFCF7181E090E002C0880F991F75
:104AB000CA95E2F79ACFBB2089F0CF718C2F0E9464
:104AC000E3128091DC0282FF07C0A8E0CA9FC00108
:104AD00011248360809325028C2FDCCF81E00E941B
:104AE000C712B1E0BA1508F075CE82E00E94C71275
:104AF00071CEAA2059F0893309F0D9CEEFEFF7EE45
:104B000023E0E150F0402040E1F7CFCE8C2F8F71B1
:104B100089CFC631BCE7DB0709F00CCD8091470295
:104B20008A7A91E009F490E09093CC018111FECC57
:104B300089E20E94400F0E947A14AFCBC631ECE7A5
:104B4000DE0709F0F7CC8091CC018111F1CC89E22C
:104B50000E94130FF0CFB0E0A0E0E1EBF5E20C947F
:104B60008B328091F201807F09F050C08091EF017B
:104B7000882309F44BC0C091240286E0B82E8091AE
:104B8000F3018C1709F442C0F090ED01E090EE01C2
:104B9000C090F001D090F101A6016E2D8F2D0E94E2
:104BA000930FD0E0811137C0BC9E8001BD9E100DD7
:104BB0001124F801EC50FE4F81818E112CC08081B0
:104BC0008F1129C08281811126C0E380F480EC1806
:104BD000FD0860E08DEE91E00E948C100E94190BA0
:104BE000E816F906C0F48091F2018F70806180931D
:104BF000F201F801E750FE4F80818F708061808361
:104C00008DEE91E00E94CA200E949E0FCDB7DEB7C4
:104C1000E9E00C94A7322196C770B1CFABE0B0E0C9
:104C2000E4E1F6E20C9482328C0185E0F801DE01C9
:104C3000179601900D928A95E1F7D8016C90119624
:104C40007C9011971296EC9012971396CD90DC9071
:104C500060E08DEE91E00E948C105C018DEE282EBC
:104C600081E0382E8090F0019090F101A4016091D4
:104C7000EE018091ED010E94930FF82E811171C118
:104C80005090EF01F601E819F9094F0160E0552055
:104C900009F410C1C1010E948C100E94190B4090B0
:104CA000F2018816990608F0DDC04091F00150919C
:104CB000F1019090ED018090EE01842D807F682DB0
:104CC00009F08AC0892D0E94930F81111CC0D80160
:104CD00011968C911197881116C08C91891113C06F
:104CE000E11011C0842D8F7080618093F201C101A9
:104CF0000E94CA208091F201F80185838F2D2B96A6
:104D0000E2E10C949E32A601672D862D0E94930F3E
:104D1000D82E21E02E25811120E020FF13C04E2D3A
:104D2000672D862D0E94740F882361F08DEE91E02F
:104D30000E94CA2086E0EDEEF1E0DF011D928A9527
:104D4000E9F7DCCF81E08E25D11080E0B82FB1707B
:104D5000CB2E80FF2CC04E2D672D862D0E94740F08
:104D6000D82E811124C06F8278868F8198850E9409
:104D7000DC0F292F22952F70903248F0225F2F7080
:104D8000223068F0C8010E94CA20DC2C0EC09F703F
:104D900011F0882351F0805E883038F0F3CF9F7097
:104DA000D1F3F8019581907FB1F7FD2CA7CFEE20CC
:104DB00009F4F2C08091F20181608093F201FCE27B
:104DC000AF16F2E4BF0609F499CF28E2A21623E455
:104DD000B20609F0ABCF92CF892D0E94930F8111BB
:104DE00017C0F8018181881113C08081891110C01A
:104DF000E1100EC04582C8010E94CA2086E0F80179
:104E0000ADEEB1E001900D928A95E1F7F52C76CFE9
:104E1000C8010E945910882309F1EE20F9F0809111
:104E2000F201803270F02091ED013091EE013A8371
:104E300029831B82DD82CC828E83CE0101960E9463
:104E4000CA2086E0F801ADEEB1E001900D928A959E
:104E5000E1F70E94AB25FF24F39450CFC8010E94D4
:104E6000CA20F9CF842D807F09F460CFF090ED0146
:104E7000B090EE014091F0015091F1016B2D8F2D1A
:104E80000E94930F8111C4CFD80111968C91119774
:104E90008B11BECF8C918F11BBCFE110B9CF15967E
:104EA0004C92C8010E94CA2086E0F10111928A95B5
:104EB000E9F7ACCF8DEE91E00E948C100E94190BA7
:104EC0008816990608F047C0FE2CEE2039F2E090D3
:104ED000ED01D090EE014091F0015091F1016D2D66
:104EE0008E2D0E94930F811128C0D80111968C91AC
:104EF00011978D1122C08C918E111FC08091F201EB
:104F000080FD12C0982F907F79F015968C9315979D
:104F1000903F39F0982F907F905F8F70892B159676
:104F20008C93C8010E94CA2086E0F801ADEEB1E082
:104F300001900D928A95E1F7E1CEC8010E945910C7
:104F400081117FCF8091F20181608093F201C801CD
:104F50000E94CA20D3CE86E0F10111928A95E9F72A
:104F6000CDCEEE2009F47ACFC8010E945910F82E58
:104F7000882309F473CF86E0F801ADEEB1E001902B
:104F80000D928A95E1F78091ED019091EE010E94DA
:104F9000DC0F0E94AB25B2CEF12CB0CEA7E1B0E081
:104FA000E4EDF7E20C948E324B8B5C8B6D8B7E8B39
:104FB0008F8B6111109246021A8A85E0FE0173966A
:104FC000DE011D9601900D928A95E1F76F8786E0CC
:104FD000FE013D96DE01179601900D928A95E1F74C
:104FE000CE0107960E940E26811114C086E0FE01B4
:104FF0003796DE01119601900D928A95E1F7EF80C8
:10500000F8840A851B85A8016F2D8E2D0E94930FB1
:10501000882359F016E0809124029091F3018913BE
:1050200035C06796E6E00C94AA322091F30130E097
:10503000C9010196877099274091240248171906E3
:10504000B9F0E982FA821D830C8396E0929FD00129
:10505000939FB00D1124AC50BE4FFE0131960190CC
:105060000D929A95E1F78093F3010E949E0FD2CFA3
:105070000E94CF141092F3011092240286E0EDEE0C
:10508000F1E0DF011D928A95E9F7C4CF819FC0014D
:1050900011248C509E4F0E940E26882311F280917D
:1050A000240290E001968770992780932402B3CF61
:1050B000A1E3B0E0EEE5F8E20C948232198E188E8E
:1050C000FE017A9688E0DF011D928A95E9F700E9F2
:1050D00011E0E6E9EE2EE1E0FE2EBB24B394CC24F1
:1050E000C394D12CF80181918F018F3F09F44AC0FC
:1050F000F894E82FE295EF70F0E021A18F70A601FF
:1051000002C0440F551F8A95E2F7CA01922F982BCF
:1051100091A392A18095892382A3789400C076E917
:10512000872E71E0972EDE0158966B2D6095F40165
:1051300091914F018D919D01215031099F3F09F4BB
:10514000C9C0492F42954F7050E0FA0140A150E08C
:105150009F7002C0559547959A95E2F740FDBAC0F9
:105160008B29F9018083FBE98F16F1E09F06F9F6A0
:10517000F801319780818F3F11F00E94010D20EAE4
:105180002A95F1F7BB0CE016F10609F0ABCF4AE027
:1051900050E0BE01685E7F4F84E792E00E946A346F
:1051A0007C01892B49F08AE0FE017896A4E7B2E001
:1051B00001900D928A95E1F700917F0210E00A5765
:1051C0001D4F10924D02D0904C02DD2009F4E0C139
:1051D0000E9458209C0180914A0290914B02A901A3
:1051E000481B590B30934B0220934A024F3F510505
:1051F00011F008F071C04115510509F466C04CA7C3
:10520000809172029091730299AB88AB10924C021C
:105210001092490230E020E0212CC12C312C662470
:105220006394712CE8A9F9A970E060E05801A20E1E
:10523000B31EC9018C589D4F2C01CF013196DC0162
:105240009C90892CE89480F8882049F1892C8694D8
:10525000B92DB1709B2E8416150611F00CF03FC0CD
:10526000DC019C9290FC43C0D5019C90D2018C90B3
:10527000C301062E01C0880F0A94EAF788228095A0
:1052800089218829992D98278C2C912C892ACC2426
:10529000C3948114910409F4C12CD5018C936F5FE0
:1052A0007F4F6630710549F6E8A9F9A93696F9AB42
:1052B000E8AB2F5F3F4F2530310509F0B3CF309277
:1052C0004C02C0924D0220924902E114F10409F00F
:1052D0006FC161C1862345CF4FEF50E090CFBCA591
:1052E0008B1A880C9828DC019C923D2CD8CF2D2C51
:1052F000D6CF332029F070FC03C0172D11701C93FA
:1053000001968630910509F079C14A5F5F4F8E168C
:105310009F0609F061C150924C0260924D02C0900C
:105320004D020E946411D82EE0917F02882309F477
:1053300081C01A8219829E012D5F3F4F83E0D901FF
:105340001D928A95E9F70E2F10E00A571D4F8091A4
:105350006D028A30D0F54DED5EE1BE016F5F7F4F8B
:10536000C8010E942B11882309F453C04BEB5DE167
:10537000BE016F5F7F4FC8010E942B11882309F483
:1053800048C04AE85EE1BE016F5F7F4FC8010E94DE
:105390002B118823F1F110926D0280917E0290E032
:1053A00045E050E0BE016F5F7F4F8A579D4F0E94DE
:1053B0006A3421E020935802892BF1F4D12C8D2DF1
:1053C0008C29E196E2E10C949E3280914E029091FC
:1053D0004F020E944920843F914008F0BCCF809149
:1053E0005802882359F385E0FE013196DF011D92B2
:1053F0008A95E9F710925802A0917E02B0E0AA5770
:10540000BD4F85E0FE01319601900D928A95E1F73E
:10541000D6CF80916D028F3F31F08F5F80936D0208
:105420008A3008F4BACF0E94582090934F0280939C
:105430004E02D5CFF0E0EA57FD4F85E0AAE1B3E098
:1054400001900D928A95E1F765E070E08AE193E0C2
:105450000E94E90C8093190380901F039090200311
:10546000A0902103B09022038091540290915502A4
:10547000A0915602B091570288169906AA06BB065B
:10548000F1F08092540290925502A0925602B0928E
:1054900057020E946411811112C00E94800C6CA7F7
:1054A0007DA78EA79FA7861A970AA80AB90A809295
:1054B0006E0290926F02A0927002B09271020E94EE
:1054C0006411882309F47BCF40915002509151021E
:1054D00060915202709153022FB7F8948091D702D5
:1054E0009091D802A091D902B091DA022FBF48174B
:1054F00059076A077B0709F462CF0E94800C60930A
:1055000050027093510280935202909353020E9472
:1055100020129C018DE0E3E2F3E0DE0111960190A0
:105520000D928A95E1F78C859D85009729F02817C3
:10553000390711F00E94F0118AE0B82EFE013E9664
:10554000DF012B2D1D922A95E9F7EE84FF8408894F
:1055500019892A893B894C895D896E897F89CE01A9
:1055600082960E94F312FE01B296DE01129601901D
:105570000D92BA94E1F76AE070E0CE0102960E94C3
:10558000E90C89838DE0FE013196A3E2B3E03CCFC4
:10559000E114F10439F480914902882309F4BFCE63
:1055A000D11006C00E94582090934B0280934A026B
:1055B000409172025091730250904C0260904D02E3
:1055C000A4E7B2E0BDA7ACA7F8014801B5E08B0E97
:1055D000911CAA24A394B12CACA5BDA54D90BDA748
:1055E000ACA7819148269A0190E080E06D01B1E07E
:1055F000CB1AD1087F0161E0E61AF108B9018501F3
:10560000082E02C0000F111F0A94E2F72F5F3F4FD0
:10561000DB017C90372CE89430F8242C202209F40C
:1056200068CE31106DCED6015C90502277247394F1
:10563000511001C0712CB72DBA607B2EDB017C921A
:10564000B90161507109DB016C9160FF06C0D7019F
:105650006C9106270C93662463945524539450CE82
:105660001F921FB61F9211248F939F93AF93BF93E6
:105670008091D602811113C08091D7029091D802F7
:10568000A091D902B091DA024196A11DB11D80937B
:10569000D7029093D802A093D902B093DA02BF91B7
:1056A000AF919F918F911F901FBE1F901895CDB7FE
:1056B000DEB7C254D1090FB6F894DEBF0FBECDBF1E
:1056C00085B7806885BF85B7806885BF84B7877FC9
:1056D00084BF0FB6F894A89580916000886180938C
:1056E0006000109260000FBE80E890E00FB6F89462
:1056F00080936100909361000FBE8FEF9CE09093C8
:10570000AB018093AA010E94270B0E94C80B8091D5
:10571000E20084608093E200789480910203882301
:10572000A1F01091E9001F709091EC00892F817019
:1057300090FD80E8182B1092E9008091E80083FD2D
:105740000E94EF141F701093E90082E084BD93E083
:1057500095BD9AEF97BD80936E0010926E021092E5
:105760006F0210927002109271020E94641191E017
:10577000892780933E010E94641181110E9451305B
:1057800080913E0180913E0195E0811190E09093DF
:105790007F0285E0891B80937E0200E911E056E9D3
:1057A000E52E51E0F52ED8018D918D018F3F11F03E
:1057B0000E94010DE016F106B1F706E911E04BE990
:1057C000E42E41E0F42EF80181918F018F3F11F01A
:1057D0000E94010DE016F106B1F78AE0E6E8F2E07A
:1057E000DF01282F1D922A95E9F7E4E7F2E0DF01B7
:1057F0001D928A95E9F78EE190E00E9442339C0168
:10580000909373028093720290E080E0F901E80FB8
:10581000F91F46E05081517051934150D9F70696D7
:105820008E31910599F790E080E00E940833873E21
:105830009E4F09F45EC067EE7EEF90E080E00E942C
:105840003C3360E082E090E00E941E3360E083E041
:1058500090E00E941E33109281021092800260E05C
:1058600074E184E090E00E943C3360E086E090E0E8
:105870000E941E336FEF87E090E00E941E3340E0ED
:1058800050E0BA0188E090E00E94303360E08DE0A3
:1058900090E00E941E3340E050E0BA0188E190E0C1
:1058A0000E94303360E087E190E00E941E3340E0C8
:1058B00050E0BA018CE190E00E94303370E060E08B
:1058C00080E290E00E943C3340E050E0BA0188E181
:1058D00090E00E94303340E050E0BA018FE090E069
:1058E0000E94303340E050E0BA0183E190E00E9432
:1058F000303382E090E00E9400338093900284E095
:1059000090E00E9408339093DC028093DB0283E0F6
:1059100090E00E94003390E00E9454108091820237
:10592000909183020E9441120E946411811103C070
:1059300082E30E94BB310E94641181110E947D1399
:1059400044E150E070E060E0CE0101960E94F03248
:1059500089818C3AB1F58A819B8190935001809323
:105960004F018C819D8190934C0180934B018E81DE
:105970009F819093520180935101888599859093DE
:105980004E0180934D018A859B85909357018093AA
:1059900056018C859D8590935501809354018E8589
:1059A0009F859093480180934701888999899093B6
:1059B0004A01809349018A899B8990935901809378
:1059C00058018FE391E09093D3028093D20298E143
:1059D000E92EF12C20E9C22E22E0D22E3BE9A32EA3
:1059E00032E0B32E3E01E3E06E0E711C80910203A3
:1059F00000E112E1853009F48AC00E94582801E9CB
:105A000012E086E8882E82E0982ED401F801919168
:105A10008D91AE16BF0609F484C09817C1F30E9499
:105A2000641123968FAF2397512CD4014D904D01D3
:105A3000F80181918F01841569F1842522968FAF39
:105A40002297312C2224239422968FAD22978221F3
:105A5000C9F02396FFAD2397FF23A1F039825A8224
:105A600091E0822D842109F490E09B830E945820CC
:105A70008160782F9D838C8349815A816B818D81D0
:105A80000E94CE273394220C26E03212DDCFF8019B
:105A90003197408253948AE05812C7CF0E94800CFD
:105AA00060C080910203843021F10E94AC191092F1
:105AB000D602F0E40FB6F894A895E09260000FBE0D
:105AC000F093600083B7817F846083BF83B7816078
:105AD00083BF7894889583B78E7F83BF0FB6F89481
